{
  "address": "0xd1349E2C674AaB21A91569b3058D7A5edBed4382",
  "abi": [
    {
      "inputs": [
        {
          "internalType": "address",
          "name": "_mainContract",
          "type": "address"
        },
        {
          "internalType": "address[]",
          "name": "_routers",
          "type": "address[]"
        }
      ],
      "stateMutability": "nonpayable",
      "type": "constructor"
    },
    {
      "anonymous": false,
      "inputs": [
        {
          "indexed": false,
          "internalType": "address",
          "name": "mainContract",
          "type": "address"
        }
      ],
      "name": "MainContractUpdated",
      "type": "event"
    },
    {
      "anonymous": false,
      "inputs": [
        {
          "indexed": true,
          "internalType": "address",
          "name": "previousOwner",
          "type": "address"
        },
        {
          "indexed": true,
          "internalType": "address",
          "name": "newOwner",
          "type": "address"
        }
      ],
      "name": "OwnershipTransferred",
      "type": "event"
    },
    {
      "anonymous": false,
      "inputs": [
        {
          "indexed": false,
          "internalType": "address",
          "name": "router",
          "type": "address"
        },
        {
          "indexed": false,
          "internalType": "bool",
          "name": "enabled",
          "type": "bool"
        }
      ],
      "name": "SupportedRouterUpdated",
      "type": "event"
    },
    {
      "inputs": [
        {
          "internalType": "uint64",
          "name": "_dstChainId",
          "type": "uint64"
        },
        {
          "internalType": "address",
          "name": "_receiver",
          "type": "address"
        },
        {
          "internalType": "uint256",
          "name": "_amount",
          "type": "uint256"
        },
        {
          "internalType": "address",
          "name": "_token",
          "type": "address"
        },
        {
          "internalType": "bytes",
          "name": "_bridgeParams",
          "type": "bytes"
        },
        {
          "internalType": "bytes",
          "name": "",
          "type": "bytes"
        }
      ],
      "name": "bridge",
      "outputs": [
        {
          "internalType": "bytes",
          "name": "bridgeResp",
          "type": "bytes"
        }
      ],
      "stateMutability": "payable",
      "type": "function"
    },
    {
      "inputs": [],
      "name": "mainContract",
      "outputs": [
        {
          "internalType": "address",
          "name": "",
          "type": "address"
        }
      ],
      "stateMutability": "view",
      "type": "function"
    },
    {
      "inputs": [],
      "name": "owner",
      "outputs": [
        {
          "internalType": "address",
          "name": "",
          "type": "address"
        }
      ],
      "stateMutability": "view",
      "type": "function"
    },
    {
      "inputs": [],
      "name": "renounceOwnership",
      "outputs": [],
      "stateMutability": "nonpayable",
      "type": "function"
    },
    {
      "inputs": [
        {
          "internalType": "address",
          "name": "_router",
          "type": "address"
        },
        {
          "internalType": "bool",
          "name": "_enabled",
          "type": "bool"
        }
      ],
      "name": "setSupportedRouter",
      "outputs": [],
      "stateMutability": "nonpayable",
      "type": "function"
    },
    {
      "inputs": [
        {
          "internalType": "address",
          "name": "",
          "type": "address"
        }
      ],
      "name": "supportedRouters",
      "outputs": [
        {
          "internalType": "bool",
          "name": "",
          "type": "bool"
        }
      ],
      "stateMutability": "view",
      "type": "function"
    },
    {
      "inputs": [
        {
          "internalType": "address",
          "name": "newOwner",
          "type": "address"
        }
      ],
      "name": "transferOwnership",
      "outputs": [],
      "stateMutability": "nonpayable",
      "type": "function"
    },
    {
      "inputs": [
        {
          "internalType": "bytes32",
          "name": "",
          "type": "bytes32"
        }
      ],
      "name": "transfers",
      "outputs": [
        {
          "internalType": "bool",
          "name": "",
          "type": "bool"
        }
      ],
      "stateMutability": "view",
      "type": "function"
    },
    {
      "inputs": [
        {
          "internalType": "address",
          "name": "_mainContract",
          "type": "address"
        }
      ],
      "name": "updateMainContract",
      "outputs": [],
      "stateMutability": "nonpayable",
      "type": "function"
    },
    {
      "stateMutability": "payable",
      "type": "receive"
    }
  ],
  "transactionHash": "0xf1e8cae262190b1a6754da302cd12be2ed020252d96155dc9b40daff08d3d20e",
  "args": [
    "0xA83A1973d6D8e08e626b75FB4Bfbd248E1EE3eFF",
    [
      "0xAf5191B0De278C7286d6C7CC6ab6BB8A73bA2Cd6"
    ]
  ],
  "numDeployments": 1,
  "solcInputHash": "26c8a0c2d6ce853e99ad16af4dec3f89",
  "bytecode": "0x60806040523480156200001157600080fd5b5060405162001c7a38038062001c7a8339810160408190526200003491620002da565b6200003f336200012c565b600180546001600160a01b0319166001600160a01b03841617905560005b8151811015620001235760006001600160a01b031682828151811062000087576200008762000339565b60200260200101516001600160a01b031603620000c15760405162461bcd60e51b8152600401620000b8906200034f565b60405180910390fd5b600160026000848481518110620000dc57620000dc62000339565b6020908102919091018101516001600160a01b03168252810191909152604001600020805460ff1916911515919091179055806200011a8162000387565b9150506200005d565b505050620003a4565b600080546001600160a01b038381166001600160a01b0319831681178455604051919092169283917f8be0079c531659141344cd1fd0a4f28419497f9722a3daafe3b4186f6b6457e09190a35050565b60006001600160a01b0382165b92915050565b6200019a816200017c565b8114620001a657600080fd5b50565b805162000189816200018f565b634e487b7160e01b600052604160045260246000fd5b601f19601f83011681018181106001600160401b0382111715620001f457620001f4620001b6565b6040525050565b60006200020760405190565b9050620002158282620001cc565b919050565b60006001600160401b03821115620002365762000236620001b6565b5060209081020190565b60006200025762000251846200021a565b620001fb565b83815290506020808201908402830185811115620002785762000278600080fd5b835b81811015620002a05780620002908882620001a9565b845250602092830192016200027a565b5050509392505050565b600082601f830112620002c057620002c0600080fd5b8151620002d284826020860162000240565b949350505050565b60008060408385031215620002f257620002f2600080fd5b6000620003008585620001a9565b92505060208301516001600160401b03811115620003215762000321600080fd5b6200032f85828601620002aa565b9150509250929050565b634e487b7160e01b600052603260045260246000fd5b602080825281016200018981600381526206e6f760ec1b602082015260400190565b634e487b7160e01b600052601160045260246000fd5b600060001982036200039d576200039d62000371565b5060010190565b6118c680620003b46000396000f3fe60806040526004361061009a5760003560e01c80639879c48d11610069578063df8bbc591161004e578063df8bbc591461019a578063f2fde38b146101ba578063f8e9c5c0146101da57600080fd5b80639879c48d1461014a578063d270e7ab1461017a57600080fd5b80633c64f04b146100a6578063715018a6146100ec578063834bc3ea146101035780638da5cb5b1461012357600080fd5b366100a157005b600080fd5b3480156100b257600080fd5b506100d66100c1366004610db4565b60036020526000908152604090205460ff1681565b6040516100e39190610ddf565b60405180910390f35b3480156100f857600080fd5b506101016101fa565b005b610116610111366004610f28565b61020e565b6040516100e39190611046565b34801561012f57600080fd5b506000546001600160a01b03165b6040516100e39190611060565b34801561015657600080fd5b506100d661016536600461106e565b60026020526000908152604090205460ff1681565b34801561018657600080fd5b5060015461013d906001600160a01b031681565b3480156101a657600080fd5b506101016101b536600461106e565b61036d565b3480156101c657600080fd5b506101016101d536600461106e565b6103d8565b3480156101e657600080fd5b506101016101f53660046110a2565b610412565b6102026104bc565b61020c60006104e6565b565b6001546060906001600160a01b031633146102445760405162461bcd60e51b815260040161023b90611116565b60405180910390fd5b60008380602001905181019061025a91906111f6565b60a08101516001600160a01b031660009081526002602052604090205490915060ff166102995760405162461bcd60e51b815260040161023b9061124b565b80516040516000916102b7918a9189918b918e9146906020016112a8565b60408051601f1981840301815291815281516020928301206000818152600390935291205490915060ff16156102ff5760405162461bcd60e51b815260040161023b90611346565b6000818152600360205260409020805460ff1916600117905561032d6001600160a01b03871633308a610543565b600061033b878a8a866105ce565b90508060405160200161034e9190611356565b60405160208183030381529060405293505050505b9695505050505050565b6103756104bc565b6001805473ffffffffffffffffffffffffffffffffffffffff19166001600160a01b0383161790556040517f50d0cbf2750e0276715bec254c588e057e0b05e87927eab7ebbad47fe1e88b4b906103cd908390611060565b60405180910390a150565b6103e06104bc565b6001600160a01b0381166104065760405162461bcd60e51b815260040161023b906113c8565b61040f816104e6565b50565b61041a6104bc565b6001600160a01b03821660009081526002602052604090205460ff16811515811515036104595760405162461bcd60e51b815260040161023b906113f2565b6001600160a01b03831660009081526002602052604090819020805460ff1916841515179055517f19df4f9d38a9b103263e051a2824d8cd9cd6dc4205d136abbd3932a9eeede061906104af9085908590611402565b60405180910390a1505050565b6000546001600160a01b0316331461020c5760405162461bcd60e51b815260040161023b9061144f565b600080546001600160a01b0383811673ffffffffffffffffffffffffffffffffffffffff19831681178455604051919092169283917f8be0079c531659141344cd1fd0a4f28419497f9722a3daafe3b4186f6b6457e09190a35050565b6105c8846323b872dd60e01b8585856040516024016105649392919061145f565b60408051601f198184030181529190526020810180517bffffffffffffffffffffffffffffffffffffffffffffffffffffffff167fffffffff0000000000000000000000000000000000000000000000000000000090931692909217909152610b38565b50505050565b60a08101516001546040805163457bfa2f60e01b81529051600093926001600160a01b031691829163457bfa2f916004808201926020929091908290030181865afa158015610621573d6000803e3d6000fd5b505050506040513d601f19601f820116820180604052508101906106459190611487565b6001600160a01b0316876001600160a01b03160361076757604051632e1a7d4d60e01b81526001600160a01b03881690632e1a7d4d906106899088906004016114a8565b600060405180830381600087803b1580156106a357600080fd5b505af11580156106b7573d6000803e3d6000fd5b50505050816001600160a01b0316631114cd2a86346106d691906114cc565b60808701516001546040516001600160a01b03909116906106fb908c906020016114e4565b6040516020818303038152906040528a8a606001516040518763ffffffff1660e01b8152600401610730959493929190611503565b6000604051808303818588803b15801561074957600080fd5b505af115801561075d573d6000803e3d6000fd5b50505050506108a7565b60a0840151610781906001600160a01b0389169087610bcc565b816001600160a01b0316639fbf10fc34866080015187602001518860400151600160009054906101000a90046001600160a01b03168b8b606001516040518060600160405280600081526020016000815260200160405180604001604052806002815260200161060f60f31b8152508152508f60405160200161080491906114e4565b60408051601f198184030181526020830182526000835290517fffffffff0000000000000000000000000000000000000000000000000000000060e08d901b16815261085a999897969594939290600401611594565b6000604051808303818588803b15801561087357600080fd5b505af1158015610887573d6000803e3d6000fd5b50505060a08601516108a792506001600160a01b038a1691506000610bcc565b6000816001600160a01b031663457bfa2f6040518163ffffffff1660e01b8152600401602060405180830381865afa1580156108e7573d6000803e3d6000fd5b505050506040513d601f19601f8201168201806040525081019061090b9190611487565b6001600160a01b0316886001600160a01b0316036109ed57826001600160a01b031663a9e56f3c6040518163ffffffff1660e01b8152600401602060405180830381865afa158015610961573d6000803e3d6000fd5b505050506040513d601f19601f820116820180604052508101906109859190611487565b6001600160a01b031663e78cea926040518163ffffffff1660e01b8152600401602060405180830381865afa1580156109c2573d6000803e3d6000fd5b505050506040513d601f19601f820116820180604052508101906109e69190611487565b9050610a52565b826001600160a01b031663e78cea926040518163ffffffff1660e01b8152600401602060405180830381865afa158015610a2b573d6000803e3d6000fd5b505050506040513d601f19601f82011682018060405250810190610a4f9190611487565b90505b6000816001600160a01b03166307968db16040518163ffffffff1660e01b8152600401602060405180830381865afa158015610a92573d6000803e3d6000fd5b505050506040513d601f19601f82011682018060405250810190610ab69190611487565b6080870151604051630f428ae960e31b81529192506001600160a01b03831691637a14574891610aea91869060040161162e565b602060405180830381865afa158015610b07573d6000803e3d6000fd5b505050506040513d601f19601f82011682018060405250810190610b2b9190611649565b9998505050505050505050565b6000610b8d826040518060400160405280602081526020017f5361666545524332303a206c6f772d6c6576656c2063616c6c206661696c6564815250856001600160a01b0316610c809092919063ffffffff16565b805190915015610bc75780806020019051810190610bab9190611675565b610bc75760405162461bcd60e51b815260040161023b906116f0565b505050565b801580610c455750604051636eb1769f60e11b81526001600160a01b0384169063dd62ed3e90610c029030908690600401611700565b602060405180830381865afa158015610c1f573d6000803e3d6000fd5b505050506040513d601f19601f82011682018060405250810190610c43919061170e565b155b610c615760405162461bcd60e51b815260040161023b90611789565b610bc78363095ea7b360e01b8484604051602401610564929190611799565b6060610c8f8484600085610c99565b90505b9392505050565b606082471015610cbb5760405162461bcd60e51b815260040161023b9061180e565b6001600160a01b0385163b610ce25760405162461bcd60e51b815260040161023b90611852565b600080866001600160a01b03168587604051610cfe9190611884565b60006040518083038185875af1925050503d8060008114610d3b576040519150601f19603f3d011682016040523d82523d6000602084013e610d40565b606091505b5091509150610d50828286610d5d565b925050505b949350505050565b60608315610d6c575081610c92565b825115610d7c5782518084602001fd5b8160405162461bcd60e51b815260040161023b9190611046565b805b811461040f57600080fd5b8035610dae81610d96565b92915050565b600060208284031215610dc957610dc9600080fd5b6000610d558484610da3565b8015155b82525050565b60208101610dae8284610dd5565b67ffffffffffffffff8116610d98565b8035610dae81610ded565b60006001600160a01b038216610dae565b610d9881610e08565b8035610dae81610e19565b634e487b7160e01b600052604160045260246000fd5b601f19601f830116810181811067ffffffffffffffff82111715610e6957610e69610e2d565b6040525050565b6000610e7b60405190565b9050610e878282610e43565b919050565b600067ffffffffffffffff821115610ea657610ea6610e2d565b601f19601f83011660200192915050565b82818337506000910152565b6000610ed6610ed184610e8c565b610e70565b905082815260208101848484011115610ef157610ef1600080fd5b610efc848285610eb7565b509392505050565b600082601f830112610f1857610f18600080fd5b8135610d55848260208601610ec3565b60008060008060008060c08789031215610f4457610f44600080fd5b6000610f508989610dfd565b9650506020610f6189828a01610e22565b9550506040610f7289828a01610da3565b9450506060610f8389828a01610e22565b935050608087013567ffffffffffffffff811115610fa357610fa3600080fd5b610faf89828a01610f04565b92505060a087013567ffffffffffffffff811115610fcf57610fcf600080fd5b610fdb89828a01610f04565b9150509295509295509295565b60005b83811015611003578181015183820152602001610feb565b838111156105c85750506000910152565b600061101e825190565b808452602084019350611035818560208601610fe8565b601f01601f19169290920192915050565b60208082528101610c928184611014565b610dd981610e08565b60208101610dae8284611057565b60006020828403121561108357611083600080fd5b6000610d558484610e22565b801515610d98565b8035610dae8161108f565b600080604083850312156110b8576110b8600080fd5b60006110c48585610e22565b92505060206110d585828601611097565b9150509250929050565b601b81526000602082017f63616c6c6572206973206e6f74206d61696e20636f6e74726163740000000000815291505b5060200190565b60208082528101610dae816110df565b8051610dae81610ded565b8051610dae81610d96565b61ffff8116610d98565b8051610dae8161113c565b8051610dae81610e19565b600060c0828403121561117157611171600080fd5b61117b60c0610e70565b905060006111898484611126565b825250602061119a84848301611131565b60208301525060406111ae84828501611131565b60408301525060606111c284828501611131565b60608301525060806111d684828501611146565b60808301525060a06111ea84828501611151565b60a08301525092915050565b600060c0828403121561120b5761120b600080fd5b6000610d55848461115c565b600e81526000602082017f696c6c6567616c20726f757465720000000000000000000000000000000000008152915061110f565b60208082528101610dae81611217565b6000610dae8260601b90565b6000610dae8261125b565b610dd961127e82610e08565b611267565b80610dd9565b6000610dae8260c01b90565b610dd967ffffffffffffffff8216611289565b60006112b48289611272565b6014820191506112c48288611272565b6014820191506112d48287611283565b6020820191506112e48286611295565b6008820191506112f48285611295565b6008820191506113048284611295565b506008019695505050505050565b600f81526000602082017f7472616e736665722065786973747300000000000000000000000000000000008152915061110f565b60208082528101610dae81611312565b60006113628284611295565b50600801919050565b602681526000602082017f4f776e61626c653a206e6577206f776e657220697320746865207a65726f206181527f6464726573730000000000000000000000000000000000000000000000000000602082015291505b5060400190565b60208082528101610dae8161136b565b600381526000602082016206e6f760ec1b8152915061110f565b60208082528101610dae816113d8565b604081016114108285611057565b610c926020830184610dd5565b60208082527f4f776e61626c653a2063616c6c6572206973206e6f7420746865206f776e65729101908152600061110f565b60208082528101610dae8161141d565b6060810161146d8286611057565b61147a6020830185611057565b610d556040830184611283565b60006020828403121561149c5761149c600080fd5b6000610d558484611151565b60208101610dae8284611283565b634e487b7160e01b600052601160045260246000fd5b600082198211156114df576114df6114b6565b500190565b60006114f08284611272565b50601401919050565b61ffff8116610dd9565b60a0810161151182886114f9565b61151e6020830187611057565b81810360408301526115308186611014565b905061153f6060830185611283565b6103636080830184611283565b805160009060608401906115608582611283565b5060208301516115736020860182611283565b506040830151848203604086015261158b8282611014565b95945050505050565b61012081016115a3828c6114f9565b6115b0602083018b611283565b6115bd604083018a611283565b6115ca6060830189611057565b6115d76080830188611283565b6115e460a0830187611283565b81810360c08301526115f6818661154c565b905081810360e083015261160a8185611014565b905081810361010083015261161f8184611014565b9b9a5050505050505050505050565b6040810161163c82856114f9565b610c926020830184611057565b60006020828403121561165e5761165e600080fd5b6000610d558484611126565b8051610dae8161108f565b60006020828403121561168a5761168a600080fd5b6000610d55848461166a565b602a81526000602082017f5361666545524332303a204552433230206f7065726174696f6e20646964206e81527f6f74207375636365656400000000000000000000000000000000000000000000602082015291506113c1565b60208082528101610dae81611696565b6040810161163c8285611057565b60006020828403121561172357611723600080fd5b6000610d558484611131565b603681526000602082017f5361666545524332303a20617070726f76652066726f6d206e6f6e2d7a65726f81527f20746f206e6f6e2d7a65726f20616c6c6f77616e636500000000000000000000602082015291506113c1565b60208082528101610dae8161172f565b604081016117a78285611057565b610c926020830184611283565b602681526000602082017f416464726573733a20696e73756666696369656e742062616c616e636520666f81527f722063616c6c0000000000000000000000000000000000000000000000000000602082015291506113c1565b60208082528101610dae816117b4565b601d81526000602082017f416464726573733a2063616c6c20746f206e6f6e2d636f6e74726163740000008152915061110f565b60208082528101610dae8161181e565b600061186c825190565b61187a818560208601610fe8565b9290920192915050565b6000610c92828461186256fea2646970667358221220c57933341ff66d5c2346f0260999e4832000646ffb77831e65dee62de057e9f964736f6c634300080f0033",
  "devdoc": {
    "kind": "dev",
    "methods": {
      "owner()": {
        "details": "Returns the address of the current owner."
      },
      "renounceOwnership()": {
        "details": "Leaves the contract without owner. It will not be possible to call `onlyOwner` functions anymore. Can only be called by the current owner. NOTE: Renouncing ownership will leave the contract without an owner, thereby removing any functionality that is only available to the owner."
      },
      "transferOwnership(address)": {
        "details": "Transfers ownership of the contract to a new account (`newOwner`). Can only be called by the current owner."
      }
    },
    "version": 1
  },
  "userdoc": {
    "kind": "user",
    "methods": {},
    "version": 1
  },
  "storageLayout": {
    "storage": [
      {
        "astId": 7,
        "contract": "contracts/bridges/StargateAdapter.sol:StargateAdapter",
        "label": "_owner",
        "offset": 0,
        "slot": "0",
        "type": "t_address"
      },
      {
        "astId": 5683,
        "contract": "contracts/bridges/StargateAdapter.sol:StargateAdapter",
        "label": "mainContract",
        "offset": 0,
        "slot": "1",
        "type": "t_address"
      },
      {
        "astId": 5687,
        "contract": "contracts/bridges/StargateAdapter.sol:StargateAdapter",
        "label": "supportedRouters",
        "offset": 0,
        "slot": "2",
        "type": "t_mapping(t_address,t_bool)"
      },
      {
        "astId": 5691,
        "contract": "contracts/bridges/StargateAdapter.sol:StargateAdapter",
        "label": "transfers",
        "offset": 0,
        "slot": "3",
        "type": "t_mapping(t_bytes32,t_bool)"
      }
    ],
    "types": {
      "t_address": {
        "encoding": "inplace",
        "label": "address",
        "numberOfBytes": "20"
      },
      "t_bool": {
        "encoding": "inplace",
        "label": "bool",
        "numberOfBytes": "1"
      },
      "t_bytes32": {
        "encoding": "inplace",
        "label": "bytes32",
        "numberOfBytes": "32"
      },
      "t_mapping(t_address,t_bool)": {
        "encoding": "mapping",
        "key": "t_address",
        "label": "mapping(address => bool)",
        "numberOfBytes": "32",
        "value": "t_bool"
      },
      "t_mapping(t_bytes32,t_bool)": {
        "encoding": "mapping",
        "key": "t_bytes32",
        "label": "mapping(bytes32 => bool)",
        "numberOfBytes": "32",
        "value": "t_bool"
      }
    }
  }
}