{
  "address": "0x4fA179796883e1a75e94BeE87a1DEf21F9fC6e94",
  "abi": [
    {
      "inputs": [
        {
          "internalType": "address",
          "name": "_messageBus",
          "type": "address"
        },
        {
          "internalType": "address",
          "name": "_nativeWrap",
          "type": "address"
        },
        {
          "internalType": "address",
          "name": "_signer",
          "type": "address"
        },
        {
          "internalType": "address",
          "name": "_feeCollector",
          "type": "address"
        },
        {
          "internalType": "string[]",
          "name": "_funcSigs",
          "type": "string[]"
        },
        {
          "internalType": "address[]",
          "name": "_codecs",
          "type": "address[]"
        },
        {
          "internalType": "address[]",
          "name": "_supportedDexList",
          "type": "address[]"
        },
        {
          "internalType": "string[]",
          "name": "_supportedDexFuncs",
          "type": "string[]"
        },
        {
          "internalType": "address[]",
          "name": "_externalSwapDexList",
          "type": "address[]"
        },
        {
          "internalType": "bool",
          "name": "_testMode",
          "type": "bool"
        }
      ],
      "stateMutability": "nonpayable",
      "type": "constructor"
    },
    {
      "anonymous": false,
      "inputs": [
        {
          "indexed": false,
          "internalType": "bytes4",
          "name": "selector",
          "type": "bytes4"
        },
        {
          "indexed": false,
          "internalType": "address",
          "name": "codec",
          "type": "address"
        }
      ],
      "name": "CodecUpdated",
      "type": "event"
    },
    {
      "anonymous": false,
      "inputs": [
        {
          "indexed": false,
          "internalType": "bytes32",
          "name": "id",
          "type": "bytes32"
        },
        {
          "indexed": false,
          "internalType": "uint256",
          "name": "amountIn",
          "type": "uint256"
        },
        {
          "indexed": false,
          "internalType": "address",
          "name": "tokenIn",
          "type": "address"
        },
        {
          "indexed": false,
          "internalType": "uint256",
          "name": "amountOut",
          "type": "uint256"
        },
        {
          "indexed": false,
          "internalType": "address",
          "name": "tokenOut",
          "type": "address"
        }
      ],
      "name": "DirectSwap",
      "type": "event"
    },
    {
      "anonymous": false,
      "inputs": [
        {
          "indexed": false,
          "internalType": "address",
          "name": "dex",
          "type": "address"
        },
        {
          "indexed": false,
          "internalType": "bool",
          "name": "enabled",
          "type": "bool"
        }
      ],
      "name": "ExternalSwapUpdated",
      "type": "event"
    },
    {
      "anonymous": false,
      "inputs": [
        {
          "indexed": false,
          "internalType": "address",
          "name": "from",
          "type": "address"
        },
        {
          "indexed": false,
          "internalType": "address",
          "name": "to",
          "type": "address"
        }
      ],
      "name": "FeeCollectorUpdated",
      "type": "event"
    },
    {
      "anonymous": false,
      "inputs": [
        {
          "indexed": false,
          "internalType": "address",
          "name": "messageBus",
          "type": "address"
        }
      ],
      "name": "MessageBusUpdated",
      "type": "event"
    },
    {
      "anonymous": false,
      "inputs": [
        {
          "indexed": false,
          "internalType": "address",
          "name": "nativeWrap",
          "type": "address"
        }
      ],
      "name": "NativeWrapUpdated",
      "type": "event"
    },
    {
      "anonymous": false,
      "inputs": [
        {
          "indexed": true,
          "internalType": "address",
          "name": "previousOwner",
          "type": "address"
        },
        {
          "indexed": true,
          "internalType": "address",
          "name": "newOwner",
          "type": "address"
        }
      ],
      "name": "OwnershipTransferred",
      "type": "event"
    },
    {
      "anonymous": false,
      "inputs": [
        {
          "indexed": false,
          "internalType": "bytes32",
          "name": "id",
          "type": "bytes32"
        },
        {
          "indexed": false,
          "internalType": "uint256",
          "name": "dstAmount",
          "type": "uint256"
        },
        {
          "indexed": false,
          "internalType": "uint256",
          "name": "refundAmount",
          "type": "uint256"
        },
        {
          "indexed": false,
          "internalType": "address",
          "name": "refundToken",
          "type": "address"
        },
        {
          "indexed": false,
          "internalType": "uint256",
          "name": "feeCollected",
          "type": "uint256"
        },
        {
          "indexed": false,
          "internalType": "enum Types.RequestStatus",
          "name": "status",
          "type": "uint8"
        },
        {
          "indexed": false,
          "internalType": "bytes",
          "name": "forwardResp",
          "type": "bytes"
        }
      ],
      "name": "RequestDone",
      "type": "event"
    },
    {
      "anonymous": false,
      "inputs": [
        {
          "indexed": false,
          "internalType": "bytes32",
          "name": "id",
          "type": "bytes32"
        },
        {
          "indexed": false,
          "internalType": "bytes",
          "name": "bridgeResp",
          "type": "bytes"
        },
        {
          "indexed": false,
          "internalType": "uint64",
          "name": "dstChainId",
          "type": "uint64"
        },
        {
          "indexed": false,
          "internalType": "uint256",
          "name": "srcAmount",
          "type": "uint256"
        },
        {
          "indexed": false,
          "internalType": "address",
          "name": "srcToken",
          "type": "address"
        },
        {
          "indexed": false,
          "internalType": "address",
          "name": "dstToken",
          "type": "address"
        },
        {
          "indexed": false,
          "internalType": "address",
          "name": "bridgeOutReceiver",
          "type": "address"
        },
        {
          "indexed": false,
          "internalType": "address",
          "name": "bridgeToken",
          "type": "address"
        },
        {
          "indexed": false,
          "internalType": "uint256",
          "name": "bridgeAmount",
          "type": "uint256"
        },
        {
          "indexed": false,
          "internalType": "string",
          "name": "bridgeProvider",
          "type": "string"
        }
      ],
      "name": "RequestSent",
      "type": "event"
    },
    {
      "anonymous": false,
      "inputs": [
        {
          "indexed": false,
          "internalType": "address",
          "name": "from",
          "type": "address"
        },
        {
          "indexed": false,
          "internalType": "address",
          "name": "to",
          "type": "address"
        }
      ],
      "name": "SignerUpdated",
      "type": "event"
    },
    {
      "anonymous": false,
      "inputs": [
        {
          "indexed": false,
          "internalType": "string[]",
          "name": "_bridgeProviders",
          "type": "string[]"
        },
        {
          "indexed": false,
          "internalType": "address[]",
          "name": "_bridgeAdapters",
          "type": "address[]"
        }
      ],
      "name": "SupportedBridgesUpdated",
      "type": "event"
    },
    {
      "anonymous": false,
      "inputs": [
        {
          "indexed": false,
          "internalType": "address",
          "name": "dex",
          "type": "address"
        },
        {
          "indexed": false,
          "internalType": "bytes4",
          "name": "selector",
          "type": "bytes4"
        },
        {
          "indexed": false,
          "internalType": "bool",
          "name": "enabled",
          "type": "bool"
        }
      ],
      "name": "SupportedDexUpdated",
      "type": "event"
    },
    {
      "inputs": [],
      "name": "CBRIDGE_PROVIDER_HASH",
      "outputs": [
        {
          "internalType": "bytes32",
          "name": "",
          "type": "bytes32"
        }
      ],
      "stateMutability": "view",
      "type": "function"
    },
    {
      "inputs": [
        {
          "internalType": "bytes32",
          "name": "",
          "type": "bytes32"
        }
      ],
      "name": "bridges",
      "outputs": [
        {
          "internalType": "contract IBridgeAdapter",
          "name": "",
          "type": "address"
        }
      ],
      "stateMutability": "view",
      "type": "function"
    },
    {
      "inputs": [
        {
          "internalType": "uint256",
          "name": "",
          "type": "uint256"
        }
      ],
      "name": "codecs",
      "outputs": [
        {
          "internalType": "address",
          "name": "",
          "type": "address"
        }
      ],
      "stateMutability": "view",
      "type": "function"
    },
    {
      "inputs": [
        {
          "internalType": "address[]",
          "name": "_tokens",
          "type": "address[]"
        },
        {
          "internalType": "address",
          "name": "_to",
          "type": "address"
        }
      ],
      "name": "collectFee",
      "outputs": [],
      "stateMutability": "nonpayable",
      "type": "function"
    },
    {
      "inputs": [
        {
          "internalType": "address",
          "name": "",
          "type": "address"
        },
        {
          "internalType": "bytes4",
          "name": "",
          "type": "bytes4"
        }
      ],
      "name": "dexRegistry",
      "outputs": [
        {
          "internalType": "bool",
          "name": "",
          "type": "bool"
        }
      ],
      "stateMutability": "view",
      "type": "function"
    },
    {
      "inputs": [
        {
          "internalType": "address",
          "name": "_sender",
          "type": "address"
        },
        {
          "internalType": "uint64",
          "name": "_srcChainId",
          "type": "uint64"
        },
        {
          "internalType": "bytes",
          "name": "_message",
          "type": "bytes"
        },
        {
          "internalType": "address",
          "name": "_executor",
          "type": "address"
        }
      ],
      "name": "executeMessage",
      "outputs": [
        {
          "internalType": "enum IMessageReceiverApp.ExecutionStatus",
          "name": "",
          "type": "uint8"
        }
      ],
      "stateMutability": "payable",
      "type": "function"
    },
    {
      "inputs": [
        {
          "internalType": "address",
          "name": "",
          "type": "address"
        },
        {
          "internalType": "address",
          "name": "_token",
          "type": "address"
        },
        {
          "internalType": "uint256",
          "name": "_amount",
          "type": "uint256"
        },
        {
          "internalType": "uint64",
          "name": "",
          "type": "uint64"
        },
        {
          "internalType": "bytes",
          "name": "_message",
          "type": "bytes"
        },
        {
          "internalType": "address",
          "name": "_executor",
          "type": "address"
        }
      ],
      "name": "executeMessageWithTransfer",
      "outputs": [
        {
          "internalType": "enum IMessageReceiverApp.ExecutionStatus",
          "name": "",
          "type": "uint8"
        }
      ],
      "stateMutability": "payable",
      "type": "function"
    },
    {
      "inputs": [
        {
          "internalType": "address",
          "name": "",
          "type": "address"
        },
        {
          "internalType": "address",
          "name": "_token",
          "type": "address"
        },
        {
          "internalType": "uint256",
          "name": "_amount",
          "type": "uint256"
        },
        {
          "internalType": "uint64",
          "name": "",
          "type": "uint64"
        },
        {
          "internalType": "bytes",
          "name": "_message",
          "type": "bytes"
        },
        {
          "internalType": "address",
          "name": "",
          "type": "address"
        }
      ],
      "name": "executeMessageWithTransferFallback",
      "outputs": [
        {
          "internalType": "enum IMessageReceiverApp.ExecutionStatus",
          "name": "",
          "type": "uint8"
        }
      ],
      "stateMutability": "payable",
      "type": "function"
    },
    {
      "inputs": [
        {
          "internalType": "address",
          "name": "_token",
          "type": "address"
        },
        {
          "internalType": "uint256",
          "name": "_amount",
          "type": "uint256"
        },
        {
          "internalType": "bytes",
          "name": "_message",
          "type": "bytes"
        },
        {
          "internalType": "address",
          "name": "",
          "type": "address"
        }
      ],
      "name": "executeMessageWithTransferRefund",
      "outputs": [
        {
          "internalType": "enum IMessageReceiverApp.ExecutionStatus",
          "name": "",
          "type": "uint8"
        }
      ],
      "stateMutability": "payable",
      "type": "function"
    },
    {
      "inputs": [
        {
          "internalType": "address",
          "name": "_token",
          "type": "address"
        },
        {
          "internalType": "uint256",
          "name": "_amount",
          "type": "uint256"
        },
        {
          "internalType": "bytes",
          "name": "_message",
          "type": "bytes"
        },
        {
          "internalType": "address",
          "name": "",
          "type": "address"
        }
      ],
      "name": "executeMessageWithTransferRefundFromAdapter",
      "outputs": [
        {
          "internalType": "enum IMessageReceiverApp.ExecutionStatus",
          "name": "",
          "type": "uint8"
        }
      ],
      "stateMutability": "payable",
      "type": "function"
    },
    {
      "inputs": [
        {
          "internalType": "address",
          "name": "",
          "type": "address"
        }
      ],
      "name": "externalSwap",
      "outputs": [
        {
          "internalType": "bool",
          "name": "",
          "type": "bool"
        }
      ],
      "stateMutability": "view",
      "type": "function"
    },
    {
      "inputs": [],
      "name": "feeCollector",
      "outputs": [
        {
          "internalType": "address",
          "name": "",
          "type": "address"
        }
      ],
      "stateMutability": "view",
      "type": "function"
    },
    {
      "inputs": [],
      "name": "messageBus",
      "outputs": [
        {
          "internalType": "address",
          "name": "",
          "type": "address"
        }
      ],
      "stateMutability": "view",
      "type": "function"
    },
    {
      "inputs": [],
      "name": "nativeWrap",
      "outputs": [
        {
          "internalType": "address",
          "name": "",
          "type": "address"
        }
      ],
      "stateMutability": "view",
      "type": "function"
    },
    {
      "inputs": [],
      "name": "owner",
      "outputs": [
        {
          "internalType": "address",
          "name": "",
          "type": "address"
        }
      ],
      "stateMutability": "view",
      "type": "function"
    },
    {
      "inputs": [],
      "name": "renounceOwnership",
      "outputs": [],
      "stateMutability": "nonpayable",
      "type": "function"
    },
    {
      "inputs": [
        {
          "internalType": "bytes4",
          "name": "",
          "type": "bytes4"
        }
      ],
      "name": "selector2codec",
      "outputs": [
        {
          "internalType": "contract ICodec",
          "name": "",
          "type": "address"
        }
      ],
      "stateMutability": "view",
      "type": "function"
    },
    {
      "inputs": [
        {
          "internalType": "string",
          "name": "_funcSig",
          "type": "string"
        },
        {
          "internalType": "address",
          "name": "_codec",
          "type": "address"
        }
      ],
      "name": "setCodec",
      "outputs": [],
      "stateMutability": "nonpayable",
      "type": "function"
    },
    {
      "inputs": [
        {
          "internalType": "address",
          "name": "_dex",
          "type": "address"
        },
        {
          "internalType": "bool",
          "name": "_enabled",
          "type": "bool"
        }
      ],
      "name": "setExternalSwap",
      "outputs": [],
      "stateMutability": "nonpayable",
      "type": "function"
    },
    {
      "inputs": [
        {
          "internalType": "address",
          "name": "_feeCollector",
          "type": "address"
        }
      ],
      "name": "setFeeCollector",
      "outputs": [],
      "stateMutability": "nonpayable",
      "type": "function"
    },
    {
      "inputs": [
        {
          "internalType": "address",
          "name": "_messageBus",
          "type": "address"
        }
      ],
      "name": "setMessageBus",
      "outputs": [],
      "stateMutability": "nonpayable",
      "type": "function"
    },
    {
      "inputs": [
        {
          "internalType": "address",
          "name": "_nativeWrap",
          "type": "address"
        }
      ],
      "name": "setNativeWrap",
      "outputs": [],
      "stateMutability": "nonpayable",
      "type": "function"
    },
    {
      "inputs": [
        {
          "internalType": "address",
          "name": "_signer",
          "type": "address"
        }
      ],
      "name": "setSigner",
      "outputs": [],
      "stateMutability": "nonpayable",
      "type": "function"
    },
    {
      "inputs": [
        {
          "internalType": "string[]",
          "name": "_bridgeProviders",
          "type": "string[]"
        },
        {
          "internalType": "address[]",
          "name": "_bridgeAdapters",
          "type": "address[]"
        }
      ],
      "name": "setSupportedBridges",
      "outputs": [],
      "stateMutability": "nonpayable",
      "type": "function"
    },
    {
      "inputs": [
        {
          "internalType": "address",
          "name": "_dex",
          "type": "address"
        },
        {
          "internalType": "bytes4",
          "name": "_selector",
          "type": "bytes4"
        },
        {
          "internalType": "bool",
          "name": "_enabled",
          "type": "bool"
        }
      ],
      "name": "setSupportedDex",
      "outputs": [],
      "stateMutability": "nonpayable",
      "type": "function"
    },
    {
      "inputs": [],
      "name": "signer",
      "outputs": [
        {
          "internalType": "address",
          "name": "",
          "type": "address"
        }
      ],
      "stateMutability": "view",
      "type": "function"
    },
    {
      "inputs": [],
      "name": "testMode",
      "outputs": [
        {
          "internalType": "bool",
          "name": "",
          "type": "bool"
        }
      ],
      "stateMutability": "view",
      "type": "function"
    },
    {
      "inputs": [
        {
          "internalType": "address",
          "name": "newOwner",
          "type": "address"
        }
      ],
      "name": "transferOwnership",
      "outputs": [],
      "stateMutability": "nonpayable",
      "type": "function"
    },
    {
      "inputs": [
        {
          "components": [
            {
              "internalType": "address",
              "name": "receiver",
              "type": "address"
            },
            {
              "internalType": "uint64",
              "name": "dstChainId",
              "type": "uint64"
            },
            {
              "internalType": "address",
              "name": "dstTransferSwapper",
              "type": "address"
            },
            {
              "internalType": "uint64",
              "name": "nonce",
              "type": "uint64"
            },
            {
              "internalType": "string",
              "name": "bridgeProvider",
              "type": "string"
            },
            {
              "internalType": "bytes",
              "name": "bridgeParams",
              "type": "bytes"
            },
            {
              "internalType": "bool",
              "name": "nativeIn",
              "type": "bool"
            },
            {
              "internalType": "bool",
              "name": "nativeOut",
              "type": "bool"
            },
            {
              "internalType": "uint256",
              "name": "fee",
              "type": "uint256"
            },
            {
              "internalType": "uint256",
              "name": "feeDeadline",
              "type": "uint256"
            },
            {
              "internalType": "bytes",
              "name": "feeSig",
              "type": "bytes"
            },
            {
              "internalType": "uint256",
              "name": "amountIn",
              "type": "uint256"
            },
            {
              "internalType": "address",
              "name": "tokenIn",
              "type": "address"
            },
            {
              "internalType": "address",
              "name": "bridgeTokenIn",
              "type": "address"
            },
            {
              "internalType": "address",
              "name": "dstTokenOut",
              "type": "address"
            },
            {
              "internalType": "bool",
              "name": "allowPartialFill",
              "type": "bool"
            },
            {
              "internalType": "bytes",
              "name": "forward",
              "type": "bytes"
            }
          ],
          "internalType": "struct Types.TransferDescription",
          "name": "_desc",
          "type": "tuple"
        },
        {
          "components": [
            {
              "internalType": "address",
              "name": "dex",
              "type": "address"
            },
            {
              "internalType": "bytes",
              "name": "data",
              "type": "bytes"
            }
          ],
          "internalType": "struct ICodec.SwapDescription[]",
          "name": "_srcSwaps",
          "type": "tuple[]"
        },
        {
          "components": [
            {
              "internalType": "address",
              "name": "dex",
              "type": "address"
            },
            {
              "internalType": "bytes",
              "name": "data",
              "type": "bytes"
            }
          ],
          "internalType": "struct ICodec.SwapDescription[]",
          "name": "_dstSwaps",
          "type": "tuple[]"
        }
      ],
      "name": "transferWithSwap",
      "outputs": [],
      "stateMutability": "payable",
      "type": "function"
    },
    {
      "stateMutability": "payable",
      "type": "receive"
    }
  ],
  "transactionHash": "0x609c424c193e61996f2b1f12f86ab6efe5641607296b4b749660328a25ff56c6",
  "args": [
    "0xaFDb9C40C7144022811F034EE07Ce2E110093fe6",
    "0x0d500b1d8e8ef31e21c99d1db9a6444d3adf1270",
    "0x26e6eAf3D3C5d4B8290AA7dd896140f383dFf043",
    "0xf0761BB438CeFca39A8fd1F27d75ccC7F6Df92d8",
    [
      "swapExactTokensForTokens(uint256,uint256,address[],address,uint256)",
      "exactInput((bytes,address,uint256,uint256,uint256))",
      "exchange_underlying(int128,int128,uint256,uint256)",
      "exchange_underlying(int128,int128,uint256,uint256,address)"
    ],
    [
      "0xe0B76D34e12C795A7cebea60e7D34CaDCf5744a1",
      "0xcecA0A7C061ae03548349cE6efEfF0995B0ABBc3",
      "0xb07c5Fbf1594C5C40Bc6398B96233fc7216E946F",
      "0xDADAbA5b6C7B2e49a093d95e7f58051d76Eb11CF"
    ],
    [
      "0xa5E0829CaCEd8fFDD4De3c43696c57F7D7A678ff",
      "0x1b02dA8Cb0d097eB8D57A175b88c7D8b47997506",
      "0xE592427A0AEce92De3Edee1F18E0157C05861564",
      "0x1111111254fb6c44bAC0beD2854e76F90643097d",
      "0x1111111254fb6c44bAC0beD2854e76F90643097d",
      "0x1111111254fb6c44bAC0beD2854e76F90643097d",
      "0x1111111254fb6c44bAC0beD2854e76F90643097d",
      "0x445FE580eF8d70FF569aB36e80c647af338db351",
      "0x5e5A23b52Cb48F5E70271Be83079cA5bC9c9e9ac",
      "0x447646e84498552e62eCF097Cc305eaBFFF09308"
    ],
    [
      "swapExactTokensForTokens(uint256,uint256,address[],address,uint256)",
      "swapExactTokensForTokens(uint256,uint256,address[],address,uint256)",
      "exactInput((bytes,address,uint256,uint256,uint256))",
      "swap(address,(address,address,address,address,uint256,uint256,uint256,bytes),bytes)",
      "clipperSwap(address,address,uint256,uint256)",
      "unoswap(address,uint256,uint256,bytes32[])",
      "uniswapV3Swap(uint256,uint256,uint256[])",
      "exchange_underlying(int128,int128,uint256,uint256)",
      "exchange_underlying(int128,int128,uint256,uint256,address)",
      "exchange_underlying(int128,int128,uint256,uint256,address)"
    ],
    [
      "0x1111111254fb6c44bac0bed2854e76f90643097d"
    ],
    false
  ],
  "numDeployments": 6,
  "solcInputHash": "3c85443a5d28a454218a12cb0c22b21c",
  "bytecode": "0x60a06040523480156200001157600080fd5b5060405162005f7438038062005f7483398101604081905262000034916200076e565b86888787878787828286866200004a33620002c6565b8051825114620000775760405162461bcd60e51b81526004016200006e906200090c565b60405180910390fd5b60005b8251811015620000f05760008382815181106200009b576200009b6200091e565b6020026020010151805190602001209050620000da81848481518110620000c657620000c66200091e565b60200260200101516200031660201b60201c565b5080620000e7816200094a565b9150506200007a565b50505060005b82518110156200016e5760008282815181106200011757620001176200091e565b6020026020010151805190602001209050620001588483815181106200014157620001416200091e565b60200260200101518260016200038860201b60201c565b508062000165816200094a565b915050620000f6565b50505060005b8151811015620001c257620001ad8282815181106200019757620001976200091e565b602002602001015160016200042160201b60201c565b80620001b9816200094a565b91505062000174565b50505050505080600660006101000a8154816001600160a01b0302191690836001600160a01b031602179055505080600760006101000a8154816001600160a01b0302191690836001600160a01b0316021790555050600160088190555089600160006101000a8154816001600160a01b0302191690836001600160a01b0316021790555088600a60006101000a8154816001600160a01b0302191690836001600160a01b0316021790555080600160146101000a81548160ff021916908315150217905550604051806040016040528060078152602001666362726964676560c81b81525080519060200120608081815250505050505050505050505062000994565b600080546001600160a01b038381166001600160a01b0319831681178455604051919092169283917f8be0079c531659141344cd1fd0a4f28419497f9722a3daafe3b4186f6b6457e09190a35050565b6001600160e01b0319909116600090815260026020526040812080546001600160a01b039093166001600160a01b031993841681179091556003805460018101825592527fc2575a0e9e593c00f959f8c92f12db2869c3395a3b0502d05e2516446f71f85b9091018054909216179055565b6001600160a01b03831660009081526004602090815260408083206001600160e01b03198616845290915290205460ff1681151581151503620003df5760405162461bcd60e51b81526004016200006e9062000982565b506001600160a01b0390921660009081526004602090815260408083206001600160e01b0319909416835292905220805491151560ff19909216919091179055565b6001600160a01b03821660009081526005602052604090205460ff1681151581151503620004635760405162461bcd60e51b81526004016200006e9062000982565b506001600160a01b03919091166000908152600560205260409020805460ff1916911515919091179055565b60006001600160a01b0382165b92915050565b620004ad816200048f565b8114620004b957600080fd5b50565b80516200049c81620004a2565b634e487b7160e01b600052604160045260246000fd5b601f19601f83011681018181106001600160401b0382111715620005075762000507620004c9565b6040525050565b60006200051a60405190565b9050620005288282620004df565b919050565b60006001600160401b03821115620005495762000549620004c9565b5060209081020190565b60006001600160401b038211156200056f576200056f620004c9565b601f19601f83011660200192915050565b60005b838110156200059d57818101518382015260200162000583565b83811115620005ad576000848401525b50505050565b6000620005ca620005c48462000553565b6200050e565b905082815260208101848484011115620005e757620005e7600080fd5b620005f484828562000580565b509392505050565b600082601f830112620006125762000612600080fd5b815162000624848260208601620005b3565b949350505050565b60006200063d620005c4846200052d565b838152905060208082019084028301858111156200065e576200065e600080fd5b835b81811015620006a45780516001600160401b03811115620006845762000684600080fd5b808601620006938982620005fc565b855250506020928301920162000660565b5050509392505050565b600082601f830112620006c457620006c4600080fd5b8151620006248482602086016200062c565b6000620006e7620005c4846200052d565b83815290506020808201908402830185811115620007085762000708600080fd5b835b81811015620006a45780620007208882620004bc565b845250602092830192016200070a565b600082601f830112620007465762000746600080fd5b815162000624848260208601620006d6565b801515620004ad565b80516200049c8162000758565b6000806000806000806000806000806101408b8d031215620007935762000793600080fd5b6000620007a18d8d620004bc565b9a50506020620007b48d828e01620004bc565b9950506040620007c78d828e01620004bc565b9850506060620007da8d828e01620004bc565b97505060808b01516001600160401b03811115620007fb57620007fb600080fd5b620008098d828e01620006ae565b96505060a08b01516001600160401b038111156200082a576200082a600080fd5b620008388d828e0162000730565b95505060c08b01516001600160401b03811115620008595762000859600080fd5b620008678d828e0162000730565b94505060e08b01516001600160401b03811115620008885762000888600080fd5b620008968d828e01620006ae565b9350506101008b01516001600160401b03811115620008b857620008b8600080fd5b620008c68d828e0162000730565b925050610120620008da8d828e0162000761565b9150509295989b9194979a5092959850565b60068152600060208201656c656e206d6d60d01b815291505b5060200190565b602080825281016200049c81620008ec565b634e487b7160e01b600052603260045260246000fd5b634e487b7160e01b600052601160045260246000fd5b6000600019820362000960576200096062000934565b5060010190565b600381526000602082016206e6f760ec1b8152915062000905565b602080825281016200049c8162000967565b6080516155b6620009be6000396000818161047301528181610aee0152610ffc01526155b66000f3fe6080604052600436106101c65760003560e01c8063918ead76116100f7578063c415b95c11610095578063efcfd8f511610064578063efcfd8f514610546578063f2fde38b14610566578063fb45378714610586578063fbf5d7631461059957600080fd5b8063c415b95c146104a2578063c5bccca3146104c2578063cd9ea342146104e2578063eeaaa6511461050357600080fd5b8063a1a227fa116100d1578063a1a227fa1461040e578063a42dce801461042e578063b8cfdc861461044e578063c04049981461046157600080fd5b8063918ead76146103a057806391ec04b5146103c05780639c649fdf146103fb57600080fd5b80635b5a66a711610164578063715018a61161013e578063715018a61461033a5780637cd2bffc1461034f57806382665a8f146103625780638da5cb5b1461038257600080fd5b80635b5a66a7146102da578063675df759146102fa5780636c19e7831461031a57600080fd5b80632aa5fc7b116101a05780632aa5fc7b14610265578063457bfa2f14610287578063547cad12146102a75780635ab7afc6146102c757600080fd5b806309bd2749146101d25780630bcb498214610218578063238ac9331461023857600080fd5b366101cd57005b600080fd5b3480156101de57600080fd5b506102026101ed366004613294565b60056020526000908152604090205460ff1681565b60405161020f91906132bf565b60405180910390f35b61022b610226366004613329565b6105cf565b60405161020f91906133f6565b34801561024457600080fd5b50600654610258906001600160a01b031681565b60405161020f919061340d565b34801561027157600080fd5b5061028561028036600461342e565b610658565b005b34801561029357600080fd5b50600a54610258906001600160a01b031681565b3480156102b357600080fd5b506102856102c2366004613294565b6106a7565b61022b6102d5366004613574565b610706565b3480156102e657600080fd5b506102856102f5366004613294565b61081f565b34801561030657600080fd5b50610285610315366004613634565b610872565b34801561032657600080fd5b50610285610335366004613294565b6108c5565b34801561034657600080fd5b50610285610920565b61022b61035d366004613574565b610934565b34801561036e57600080fd5b5061025861037d366004613684565b610cfd565b34801561038e57600080fd5b506000546001600160a01b0316610258565b3480156103ac57600080fd5b506102856103bb3660046136f0565b610d27565b3480156103cc57600080fd5b506102026103db366004613769565b600460209081526000928352604080842090915290825290205460ff1681565b61022b61040936600461379c565b610e47565b34801561041a57600080fd5b50600154610258906001600160a01b031681565b34801561043a57600080fd5b50610285610449366004613294565b610e8e565b61028561045c3660046137f0565b610ee9565b34801561046d57600080fd5b506104957f000000000000000000000000000000000000000000000000000000000000000081565b60405161020f91906138a0565b3480156104ae57600080fd5b50600754610258906001600160a01b031681565b3480156104ce57600080fd5b506102856104dd3660046138ae565b6112aa565b3480156104ee57600080fd5b5060015461020290600160a01b900460ff1681565b34801561050f57600080fd5b5061053961051e366004613684565b6009602052600090815260409020546001600160a01b031681565b60405161020f9190613941565b34801561055257600080fd5b5061028561056136600461394f565b611376565b34801561057257600080fd5b50610285610581366004613294565b61155c565b61022b610594366004613329565b611596565b3480156105a557600080fd5b506105396105b436600461398d565b6002602052600090815260409020546001600160a01b031681565b600154600090600160a01b900460ff16610616576001546001600160a01b031633146106165760405162461bcd60e51b815260040161060d906139e5565b60405180910390fd5b6002600854036106385760405162461bcd60e51b815260040161060d90613a29565b600260085561064986868686611616565b60016008559695505050505050565b6106606116a6565b61066a82826116d0565b7f1030ebdffe19ed06839890787ae0344a023e8c553e3fa69b7e74564e8c7965f0828260405161069b929190613a39565b60405180910390a15050565b6106af6116a6565b600180546001600160a01b0319166001600160a01b0383169081179091556040517f3f8223bcd8b3b875473e9f9e14e1ad075451a2b5ffd31591655da9a01516bf5e916106fb9161340d565b60405180910390a150565b600154600090600160a01b900460ff16610744576001546001600160a01b031633146107445760405162461bcd60e51b815260040161060d906139e5565b6002600854036107665760405162461bcd60e51b815260040161060d90613a29565b600260085582516000906107839085016020908101908601613d02565b905061078f878761173b565b60008160800151876107a19190613d53565b90506107b48882846040015160006118c0565b8151608083015160408051602081018252600080825291517ffd53a0c19886b8e3b5a497eb3ab7a50cb59734988891978e5f6709e86af805c3946108029490939287928f9291600291613db3565b60405180910390a160019250505060016008559695505050505050565b6108276116a6565b600a80546001600160a01b0319166001600160a01b0383161790556040517fb878cd71628ac64b2df1872301925e01164824535b02e8601077749eeeb88c3d906106fb90839061340d565b61087a6116a6565b6108858383836119f0565b7f5e20184b00709d9f103306958e9fb9d509f78bec1829ca7080f2c43eb2ff21a88383836040516108b893929190613e31565b60405180910390a1505050565b6108cd6116a6565b600680546001600160a01b038381166001600160a01b03198316179092556040519116907f2d025324f0a785e8c12d0a0d91a9caa49df4ef20ff87e0df7213a1d4f3157beb9061069b9083908590613e59565b6109286116a6565b6109326000611a86565b565b600154600090600160a01b900460ff16610972576001546001600160a01b031633146109725760405162461bcd60e51b815260040161060d906139e5565b6002600854036109945760405162461bcd60e51b815260040161060d90613a29565b600260085582516000906109b19085016020908101908601613d02565b90508060800151861015610a235760808101869052805160408051602081018252600080825291517ffd53a0c19886b8e3b5a497eb3ab7a50cb59734988891978e5f6709e86af805c393610a11939092909182918d918d91600191613e74565b60405180910390a16001915050610649565b6080810151610a329087613d53565b95508560006060610a438a8461173b565b6020840151518a9015610ac75760606000610a618760200151611ad6565b90955093509150506001600160a01b03808216908e1614610a945760405162461bcd60e51b815260040161060d90613ed0565b610aa88760200151838e8a60a00151611d04565b90965094508415610ac457610ac48d86896040015160006118c0565b50505b60c08501515115610c015760008560c00151806020019051810190610aec9190613f18565b7f00000000000000000000000000000000000000000000000000000000000000006000908152600960205260409020549091506001600160a01b031680610b455760405162461bcd60e51b815260040161060d90613f87565b610b596001600160a01b0384168288612047565b6000610b6d88600001518960400151612130565b83516040808b0151602087015191516341a5e1f560e11b81529394506001600160a01b0386169363834bc3ea933493610bb09391928e918c918a90600401613fa7565b60006040518083038185885af1158015610bce573d6000803e3d6000fd5b50505050506040513d6000823e601f3d908101601f19168201604052610bf7919081019061400e565b9450505050610c99565b3415610c85576000876001600160a01b031634604051610c2090614049565b60006040518083038185875af1925050503d8060008114610c5d576040519150601f19603f3d011682016040523d82523d6000602084013e610c62565b606091505b5050905080610c835760405162461bcd60e51b815260040161060d90614088565b505b610c998185876040015188606001516118c0565b507ffd53a0c19886b8e3b5a497eb3ab7a50cb59734988891978e5f6709e86af805c3846000015184848d8860800151600187604051610cde9796959493929190614098565b60405180910390a1600194505050505060016008559695505050505050565b60038181548110610d0d57600080fd5b6000918252602090912001546001600160a01b0316905081565b610d2f6116a6565b828114610d4e5760405162461bcd60e51b815260040161060d906140e7565b60005b83811015610e0357828282818110610d6b57610d6b6140f7565b9050602002016020810190610d809190613294565b60096000878785818110610d9657610d966140f7565b9050602002810190610da8919061410d565b604051610db6929190614177565b6040518091039020815260200190815260200160002060006101000a8154816001600160a01b0302191690836001600160a01b031602179055508080610dfb90614184565b915050610d51565b507f68d2b5e14eb61b73f2dfa46a255dcba81a3b53259093a83c90da69c3ade70b9684848484604051610e3994939291906142ea565b60405180910390a150505050565b600154600090600160a01b900460ff16610e85576001546001600160a01b03163314610e855760405162461bcd60e51b815260040161060d906139e5565b95945050505050565b610e966116a6565b600780546001600160a01b038381166001600160a01b03198316179092556040519116907f5d16ad41baeb009cd23eb8f6c7cde5c2e0cd5acf4a33926ab488875c37c37f389061069b9083908590613e59565b600260085403610f0b5760405162461bcd60e51b815260040161060d90613a29565b600260085582151580610f41575067ffffffffffffffff4616610f34604087016020880161431b565b67ffffffffffffffff1614155b610f5d5760405162461bcd60e51b815260040161060d90614356565b82151580610f95575061016085013515801590610f9557506000610f896101a087016101808801613294565b6001600160a01b031614155b610fb15760405162461bcd60e51b815260040161060d90614356565b6000610fc0608087018761410d565b604051610fce929190614177565b604051908190039020905081158015610ff45750610ff061020087018761410d565b1590505b8061101e57507f000000000000000000000000000000000000000000000000000000000000000081145b61103a5760405162461bcd60e51b815260040161060d9061439a565b600081815260096020908152604091829020546001600160a01b03169167ffffffffffffffff461691611071918a01908a0161431b565b67ffffffffffffffff16148061108f57506001600160a01b03811615155b6110ab5760405162461bcd60e51b815260040161060d906143de565b610160870135606060006110c76101a08b016101808c01613294565b905060006110dd6101a08c016101808d01613294565b905088156111875761111b8a8a60008181106110fb576110fb6140f7565b905060200281019061110d91906143ee565b6111169061446b565b6121a1565b15611139576111326101c08c016101a08d01613294565b9050611156565b61114b6111468a8c6144e5565b611ad6565b929650919450925090505b806001600160a01b0316826001600160a01b0316036111875760405162461bcd60e51b815260040161060d9061454f565b61119760e08c0160c08d0161455f565b1561125757600a546001600160a01b038381169116146111c95760405162461bcd60e51b815260040161060d906145b4565b833410156111e95760405162461bcd60e51b815260040161060d906145f8565b600a60009054906101000a90046001600160a01b03166001600160a01b031663d0e30db0856040518263ffffffff1660e01b81526004016000604051808303818588803b15801561123957600080fd5b505af115801561124d573d6000803e3d6000fd5b505050505061126c565b61126c6001600160a01b038316333087612225565b61129882828661127b8f6147fe565b8e8e9061128891906144e5565b6112928d8f6144e5565b89612246565b50506001600855505050505050505050565b6112b26116a6565b600083836040516112c4929190614177565b6040518091039020905061134581836001600160e01b0319909116600090815260026020526040812080546001600160a01b039093166001600160a01b031993841681179091556003805460018101825592527fc2575a0e9e593c00f959f8c92f12db2869c3395a3b0502d05e2516446f71f85b9091018054909216179055565b7f58ddcdb40971f55ad1b6a8a28067274a4ffc7e9d77c3ea14a17652faa705e1978183604051610e3992919061480a565b6007546001600160a01b031633146113a05760405162461bcd60e51b815260040161060d9061484c565b60005b828110156115565760008484838181106113bf576113bf6140f7565b90506020020160208101906113d49190613294565b6001600160a01b03160361146f5760004790506000836001600160a01b03168261c3509060405161140490614049565b600060405180830381858888f193505050503d8060008114611442576040519150601f19603f3d011682016040523d82523d6000602084013e611447565b606091505b50509050806114685760405162461bcd60e51b815260040161060d90614890565b5050611544565b6000848483818110611483576114836140f7565b90506020020160208101906114989190613294565b6001600160a01b03166370a08231306040518263ffffffff1660e01b81526004016114c3919061340d565b602060405180830381865afa1580156114e0573d6000803e3d6000fd5b505050506040513d601f19601f8201168201806040525081019061150491906148a0565b9050611542838287878681811061151d5761151d6140f7565b90506020020160208101906115329190613294565b6001600160a01b03169190612380565b505b8061154e81614184565b9150506113a3565b50505050565b6115646116a6565b6001600160a01b03811661158a5760405162461bcd60e51b815260040161060d9061491b565b61159381611a86565b50565b60006002600854036115ba5760405162461bcd60e51b815260040161060d90613a29565b6002600855600a546001600160a01b038781169116146115ee576115e96001600160a01b038716333088612225565b61160e565b8434101561160e5760405162461bcd60e51b815260040161060d9061495f565b610649868686865b60008061162583850185614a6b565b9050611631868661173b565b6116428686836040015160006118c0565b8051608082015160408051602081018252600080825291517ffd53a0c19886b8e3b5a497eb3ab7a50cb59734988891978e5f6709e86af805c394611690949093928b928d9291600291613db3565b60405180910390a160019150505b949350505050565b6000546001600160a01b031633146109325760405162461bcd60e51b815260040161060d90614ad8565b6001600160a01b03821660009081526005602052604090205460ff168115158115150361170f5760405162461bcd60e51b815260040161060d90614356565b506001600160a01b03919091166000908152600560205260409020805460ff1916911515919091179055565b600a546001600160a01b03908116908316036118bc57600154604080516320a6037160e21b815290516000926001600160a01b0316916382980dc49160048083019260209291908290030181865afa15801561179b573d6000803e3d6000fd5b505050506040513d601f19601f820116820180604052508101906117bf9190614ae8565b9050600a60009054906101000a90046001600160a01b03166001600160a01b0316816001600160a01b031663457bfa2f6040518163ffffffff1660e01b8152600401602060405180830381865afa15801561181e573d6000803e3d6000fd5b505050506040513d601f19601f820116820180604052508101906118429190614ae8565b6001600160a01b0316036118ba57600a60009054906101000a90046001600160a01b03166001600160a01b031663d0e30db0836040518263ffffffff1660e01b81526004016000604051808303818588803b1580156118a057600080fd5b505af11580156118b4573d6000803e3d6000fd5b50505050505b505b5050565b80156119dc57600a546001600160a01b038581169116146118f35760405162461bcd60e51b815260040161060d90614b3d565b600a54604051632e1a7d4d60e01b81526001600160a01b0390911690632e1a7d4d906119239086906004016138a0565b600060405180830381600087803b15801561193d57600080fd5b505af1158015611951573d6000803e3d6000fd5b505050506000826001600160a01b03168461c3509060405161197290614049565b600060405180830381858888f193505050503d80600081146119b0576040519150601f19603f3d011682016040523d82523d6000602084013e6119b5565b606091505b50509050806119d65760405162461bcd60e51b815260040161060d90614088565b50611556565b6115566001600160a01b0385168385612380565b6001600160a01b03831660009081526004602090815260408083206001600160e01b03198616845290915290205460ff1681151581151503611a445760405162461bcd60e51b815260040161060d90614356565b506001600160a01b0390921660009081526004602090815260408083206001600160e01b0319909416835292905220805491151560ff19909216919091179055565b600080546001600160a01b038381166001600160a01b0319831681178455604051919092169283917f8be0079c531659141344cd1fd0a4f28419497f9722a3daafe3b4186f6b6457e09190a35050565b60008060006060600080611ae98761239f565b925060005b8751811015611cfa5760046000898381518110611b0d57611b0d6140f7565b6020026020010151600001516001600160a01b03166001600160a01b031681526020019081526020016000206000898381518110611b4d57611b4d6140f7565b602002602001015160200151611b6290614b61565b6001600160e01b031916815260208101919091526040016000205460ff16611b9c5760405162461bcd60e51b815260040161060d90614bda565b6000806000868481518110611bb357611bb36140f7565b60200260200101516001600160a01b031663358f0e1c8c8681518110611bdb57611bdb6140f7565b60200260200101516040518263ffffffff1660e01b8152600401611bff9190614c16565b606060405180830381865afa158015611c1c573d6000803e3d6000fd5b505050506040513d601f19601f82011682018060405250810190611c409190614c27565b919450925090506001600160a01b0386161580611c6e5750816001600160a01b0316866001600160a01b0316145b611c8a5760405162461bcd60e51b815260040161060d90614ca1565b90945084906001600160a01b0385161580611cb65750806001600160a01b0316856001600160a01b0316145b611cd25760405162461bcd60e51b815260040161060d90614ce5565b935083611cdf838b614cf5565b99509097509550819050611cf281614184565b915050611aee565b5050509193509193565b6000806000806000611d1789888a6124de565b9250925092506000816001600160a01b03166370a08231306040518263ffffffff1660e01b8152600401611d4b919061340d565b602060405180830381865afa158015611d68573d6000803e3d6000fd5b505050506040513d601f19601f82011682018060405250810190611d8c91906148a0565b905060005b8a51811015611f9a5760008a8281518110611dae57611dae6140f7565b60200260200101516001600160a01b0316634c6da2698d8481518110611dd657611dd66140f7565b602002602001015160200151888581518110611df457611df46140f7565b6020026020010151306040518463ffffffff1660e01b8152600401611e1b93929190614d0d565b600060405180830381865afa158015611e38573d6000803e3d6000fd5b505050506040513d6000823e601f3d908101601f19168201604052611e60919081019061400e565b9050611eb68c8381518110611e7757611e776140f7565b602002602001015160000151878481518110611e9557611e956140f7565b6020026020010151876001600160a01b03166120479092919063ffffffff16565b60008c8381518110611eca57611eca6140f7565b6020026020010151600001516001600160a01b031682604051611eed9190614d5c565b6000604051808303816000865af19150503d8060008114611f2a576040519150601f19603f3d011682016040523d82523d6000602084013e611f2f565b606091505b505090508080611f3c5750895b611f585760405162461bcd60e51b815260040161060d90614d9c565b80611f8557868381518110611f6f57611f6f6140f7565b602002602001015188611f829190614cf5565b97505b50508080611f9290614184565b915050611d91565b506040516370a0823160e01b81526000906001600160a01b038416906370a0823190611fca90309060040161340d565b602060405180830381865afa158015611fe7573d6000803e3d6000fd5b505050506040513d601f19601f8201168201806040525081019061200b91906148a0565b90506120178282613d53565b9650600087116120395760405162461bcd60e51b815260040161060d90614de0565b505050505094509492505050565b600081846001600160a01b031663dd62ed3e30866040518363ffffffff1660e01b8152600401612078929190613e59565b602060405180830381865afa158015612095573d6000803e3d6000fd5b505050506040513d601f19601f820116820180604052508101906120b991906148a0565b6120c39190614cf5565b90506115568463095ea7b360e01b85846040516024016120e4929190614df0565b60408051601f198184030181529190526020810180517bffffffffffffffffffffffffffffffffffffffffffffffffffffffff166001600160e01b031990931692909217909152612693565b60608060606040518060e00160405280868152602001838152602001856001600160a01b0316815260200160001515815260200160008152602001600015158152602001828152506040516020016121889190614f02565b6040516020818303038152906040529250505092915050565b80516001600160a01b0316600090815260046020908152604082209083015182906121cb90614b61565b6001600160e01b031916815260208101919091526040016000205460ff166122055760405162461bcd60e51b815260040161060d90614bda565b50516001600160a01b031660009081526005602052604090205460ff1690565b611556846323b872dd60e01b8585856040516024016120e493929190614f13565b82518590156122d657600061227485600081518110612267576122676140f7565b60200260200101516121a1565b156122a85761229f89898988600081518110612292576122926140f7565b6020026020010151612722565b925090506122b7565b6122b285846128b4565b925090505b806122d45760405162461bcd60e51b815260040161060d90614f6f565b505b60006122ea86600001518760600151612bfe565b90504667ffffffffffffffff16866020015167ffffffffffffffff1603612365577f0e248ac8be20725176a5f0ab093c5fbb964634d4675012f3d3ad66e69e56d5b781888b858c604051612342959493929190614f7f565b60405180910390a161235e888388600001518960e001516118c0565b5050612377565b612374818a8a89888c88612c36565b50505b50505050505050565b6118ba8363a9059cbb60e01b84846040516024016120e4929190614df0565b60606000825167ffffffffffffffff8111156123bd576123bd613486565b6040519080825280602002602001820160405280156123e6578160200160208202803683370190505b50905060005b83518110156124d7576000848281518110612409576124096140f7565b60200260200101516020015161241e90614b61565b6001600160e01b0319811660009081526002602052604090205484519192506001600160a01b031690849084908110612459576124596140f7565b60200260200101906001600160a01b031690816001600160a01b03168152505060006001600160a01b0316838381518110612496576124966140f7565b60200260200101516001600160a01b0316036124c45760405162461bcd60e51b815260040161060d90614ff5565b50806124cf81614184565b9150506123ec565b5092915050565b60606000806000865167ffffffffffffffff8111156124ff576124ff613486565b604051908082528060200260200182016040528015612528578160200160208202803683370190505b50935060005b875181101561261c57600086828151811061254b5761254b6140f7565b60200260200101516001600160a01b031663358f0e1c8a8481518110612573576125736140f7565b60200260200101516040518263ffffffff1660e01b81526004016125979190614c16565b606060405180830381865afa1580156125b4573d6000803e3d6000fd5b505050506040513d601f19601f820116820180604052508101906125d89190614c27565b909650945090506125e98184614cf5565b9250808683815181106125fe576125fe6140f7565b6020908102919091010152508061261481614184565b91505061252e565b5060005b8451811015612688578185828151811061263c5761263c6140f7565b60200260200101518861264f9190615005565b612659919061503a565b85828151811061266b5761266b6140f7565b60209081029190910101528061268081614184565b915050612620565b505093509350939050565b60006126e8826040518060400160405280602081526020017f5361666545524332303a206c6f772d6c6576656c2063616c6c206661696c6564815250856001600160a01b0316612db69092919063ffffffff16565b8051909150156118ba5780806020019051810190612706919061504e565b6118ba5760405162461bcd60e51b815260040161060d906150c9565b8051600090819061273e906001600160a01b0388169086612047565b6040516370a0823160e01b81526000906001600160a01b038716906370a082319061276d90309060040161340d565b602060405180830381865afa15801561278a573d6000803e3d6000fd5b505050506040513d601f19601f820116820180604052508101906127ae91906148a0565b905083600001516001600160a01b031684602001516040516127d09190614d5c565b6000604051808303816000865af19150503d806000811461280d576040519150601f19603f3d011682016040523d82523d6000602084013e612812565b606091505b5050809350508261282a5760008092509250506128ab565b6040516370a0823160e01b81526000906001600160a01b038816906370a082319061285990309060040161340d565b602060405180830381865afa158015612876573d6000803e3d6000fd5b505050506040513d601f19601f8201168201806040525081019061289a91906148a0565b90506128a68282613d53565b925050505b94509492505050565b60008060005b8451811015612bf55760008060008684815181106128da576128da6140f7565b60200260200101516001600160a01b031663358f0e1c898681518110612902576129026140f7565b60200260200101516040518263ffffffff1660e01b81526004016129269190614c16565b606060405180830381865afa158015612943573d6000803e3d6000fd5b505050506040513d601f19601f820116820180604052508101906129679190614c27565b9250925092506000878581518110612981576129816140f7565b60200260200101516001600160a01b0316634c6da2698a87815181106129a9576129a96140f7565b60200260200101516020015186306040518463ffffffff1660e01b81526004016129d593929190614d0d565b600060405180830381865afa1580156129f2573d6000803e3d6000fd5b505050506040513d6000823e601f3d908101601f19168201604052612a1a919081019061400e565b9050612a4e898681518110612a3157612a316140f7565b6020908102919091010151516001600160a01b0385169086612047565b6040516370a0823160e01b81526000906001600160a01b038416906370a0823190612a7d90309060040161340d565b602060405180830381865afa158015612a9a573d6000803e3d6000fd5b505050506040513d601f19601f82011682018060405250810190612abe91906148a0565b9050898681518110612ad257612ad26140f7565b6020026020010151600001516001600160a01b031682604051612af59190614d5c565b6000604051808303816000865af19150503d8060008114612b32576040519150601f19603f3d011682016040523d82523d6000602084013e612b37565b606091505b50508098505087612b545760008097509750505050505050612bf7565b6040516370a0823160e01b81526000906001600160a01b038516906370a0823190612b8390309060040161340d565b602060405180830381865afa158015612ba0573d6000803e3d6000fd5b505050506040513d601f19601f82011682018060405250810190612bc491906148a0565b9050612bd08282613d53565b612bda9089614cf5565b97505050505050508080612bed90614184565b9150506128ba565b505b9250929050565b600033834684604051602001612c179493929190615120565b6040516020818303038152906040528051906020012090505b92915050565b60008084511180612c4d5750600085610200015151115b612c58578451612c5e565b84604001515b90506060612c6d86858a612dcf565b60c0860151349015612c8657612c838534613d53565b90505b608087015180516020918201206000908152600990915260409020546001600160a01b0390811690612cbb908a168287612047565b6000612cc88c8a8a612e59565b9050816001600160a01b031663834bc3ea848b60200151888a8f8f60a00151886040518863ffffffff1660e01b8152600401612d0996959493929190613fa7565b60006040518083038185885af1158015612d27573d6000803e3d6000fd5b50505050506040513d6000823e601f3d908101601f19168201604052612d50919081019061400e565b93505050507f082e2f634ceec1af5105aa53f234b7efad94428a54a714e3b7c7115ee549308089828860200151878c8b6101c00151888e8b8f60800151604051612da39a99989796959493929190615168565b60405180910390a1505050505050505050565b6060612dc58484600085612eda565b90505b9392505050565b60004684602001518484876101200151886101000151604051602001612dfa9695949392919061520a565b6040516020818303038152906040528051906020012090506000612e1d82612f9c565b9050612e2e81866101400151612fcc565b4285610120015111612e525760405162461bcd60e51b815260040161060d906152ce565b5050505050565b60606040518060e0016040528085815260200183815260200184600001516001600160a01b031681526020018460e00151151581526020018461010001518152602001846101e0015115158152602001846102000151815250604051602001612ec29190614f02565b60405160208183030381529060405290509392505050565b606082471015612efc5760405162461bcd60e51b815260040161060d90615338565b6001600160a01b0385163b612f235760405162461bcd60e51b815260040161060d9061537c565b600080866001600160a01b03168587604051612f3f9190614d5c565b60006040518083038185875af1925050503d8060008114612f7c576040519150601f19603f3d011682016040523d82523d6000602084013e612f81565b606091505b5091509150612f91828286613008565b979650505050505050565b600081604051602001612faf919061538c565b604051602081830303815290604052805190602001209050919050565b6000612fd88383613041565b6006549091506001600160a01b038083169116146118ba5760405162461bcd60e51b815260040161060d906153fb565b60608315613017575081612dc8565b8251156130275782518084602001fd5b8160405162461bcd60e51b815260040161060d919061540b565b60008060006130508585613065565b9150915061305d816130a7565b509392505050565b600080825160410361309b5760208301516040840151606085015160001a61308f87828585613187565b94509450505050612bf7565b50600090506002612bf7565b60008160048111156130bb576130bb6133ad565b036130c35750565b60018160048111156130d7576130d76133ad565b036130f45760405162461bcd60e51b815260040161060d90615450565b6002816004811115613108576131086133ad565b036131255760405162461bcd60e51b815260040161060d90615494565b6003816004811115613139576131396133ad565b036131565760405162461bcd60e51b815260040161060d906154e3565b600481600481111561316a5761316a6133ad565b036115935760405162461bcd60e51b815260040161060d90615532565b6000807f7fffffffffffffffffffffffffffffff5d576e7357a4501ddfe92f46681b20a08311156131be57506000905060036128ab565b8460ff16601b141580156131d657508460ff16601c14155b156131e757506000905060046128ab565b60006001878787876040516000815260200160405260405161320c949392919061554b565b6020604051602081039080840390855afa15801561322e573d6000803e3d6000fd5b5050604051601f1901519150506001600160a01b038116613257576000600192509250506128ab565b9660009650945050505050565b60006001600160a01b038216612c30565b61327e81613264565b811461159357600080fd5b8035612c3081613275565b6000602082840312156132a9576132a9600080fd5b600061169e8484613289565b8015155b82525050565b60208101612c3082846132b5565b8061327e565b8035612c30816132cd565b60008083601f8401126132f3576132f3600080fd5b50813567ffffffffffffffff81111561330e5761330e600080fd5b602083019150836001820283011115612bf757612bf7600080fd5b60008060008060006080868803121561334457613344600080fd5b60006133508888613289565b9550506020613361888289016132d3565b945050604086013567ffffffffffffffff81111561338157613381600080fd5b61338d888289016132de565b935093505060606133a088828901613289565b9150509295509295909350565b634e487b7160e01b600052602160045260246000fd5b60038110611593576115936133ad565b806133dd816133c3565b919050565b6000612c30826133d3565b6132b9816133e2565b60208101612c3082846133ed565b6132b981613264565b60208101612c308284613404565b80151561327e565b8035612c308161341b565b6000806040838503121561344457613444600080fd5b60006134508585613289565b925050602061346185828601613423565b9150509250929050565b67ffffffffffffffff811661327e565b8035612c308161346b565b634e487b7160e01b600052604160045260246000fd5b601f19601f830116810181811067ffffffffffffffff821117156134c2576134c2613486565b6040525050565b60006134d460405190565b90506133dd828261349c565b600067ffffffffffffffff8211156134fa576134fa613486565b601f19601f83011660200192915050565b82818337506000910152565b600061352a613525846134e0565b6134c9565b90508281526020810184848401111561354557613545600080fd5b61305d84828561350b565b600082601f83011261356457613564600080fd5b813561169e848260208601613517565b60008060008060008060c0878903121561359057613590600080fd5b600061359c8989613289565b96505060206135ad89828a01613289565b95505060406135be89828a016132d3565b94505060606135cf89828a0161347b565b935050608087013567ffffffffffffffff8111156135ef576135ef600080fd5b6135fb89828a01613550565b92505060a061360c89828a01613289565b9150509295509295509295565b6001600160e01b0319811661327e565b8035612c3081613619565b60008060006060848603121561364c5761364c600080fd5b60006136588686613289565b935050602061366986828701613629565b925050604061367a86828701613423565b9150509250925092565b60006020828403121561369957613699600080fd5b600061169e84846132d3565b60008083601f8401126136ba576136ba600080fd5b50813567ffffffffffffffff8111156136d5576136d5600080fd5b602083019150836020820283011115612bf757612bf7600080fd5b6000806000806040858703121561370957613709600080fd5b843567ffffffffffffffff81111561372357613723600080fd5b61372f878288016136a5565b9450945050602085013567ffffffffffffffff81111561375157613751600080fd5b61375d878288016136a5565b95989497509550505050565b6000806040838503121561377f5761377f600080fd5b600061378b8585613289565b925050602061346185828601613629565b6000806000806000608086880312156137b7576137b7600080fd5b60006137c38888613289565b95505060206133618882890161347b565b600061022082840312156137ea576137ea600080fd5b50919050565b60008060008060006060868803121561380b5761380b600080fd5b853567ffffffffffffffff81111561382557613825600080fd5b613831888289016137d4565b955050602086013567ffffffffffffffff81111561385157613851600080fd5b61385d888289016136a5565b9450945050604086013567ffffffffffffffff81111561387f5761387f600080fd5b61388b888289016136a5565b92509250509295509295909350565b806132b9565b60208101612c30828461389a565b6000806000604084860312156138c6576138c6600080fd5b833567ffffffffffffffff8111156138e0576138e0600080fd5b6138ec868287016132de565b9350935050602061367a86828701613289565b6000612c306001600160a01b038316613916565b90565b6001600160a01b031690565b6000612c30826138ff565b6000612c3082613922565b6132b98161392d565b60208101612c308284613938565b60008060006040848603121561396757613967600080fd5b833567ffffffffffffffff81111561398157613981600080fd5b6138ec868287016136a5565b6000602082840312156139a2576139a2600080fd5b600061169e8484613629565b601981526000602082017f63616c6c6572206973206e6f74206d6573736167652062757300000000000000815291505b5060200190565b60208082528101612c30816139ae565b601f81526000602082017f5265656e7472616e637947756172643a207265656e7472616e742063616c6c00815291506139de565b60208082528101612c30816139f5565b60408101613a478285613404565b612dc860208301846132b5565b8051612c30816132cd565b600067ffffffffffffffff821115613a7957613a79613486565b5060209081020190565b8051612c3081613275565b60005b83811015613aa9578181015183820152602001613a91565b838111156115565750506000910152565b6000613ac8613525846134e0565b905082815260208101848484011115613ae357613ae3600080fd5b61305d848285613a8e565b600082601f830112613b0257613b02600080fd5b815161169e848260208601613aba565b600060408284031215613b2757613b27600080fd5b613b3160406134c9565b90506000613b3f8484613a83565b825250602082015167ffffffffffffffff811115613b5f57613b5f600080fd5b613b6b84828501613aee565b60208301525092915050565b6000613b8561352584613a5f565b83815290506020808201908402830185811115613ba457613ba4600080fd5b835b81811015613be557805167ffffffffffffffff811115613bc857613bc8600080fd5b808601613bd58982613b12565b8552505060209283019201613ba6565b5050509392505050565b600082601f830112613c0357613c03600080fd5b815161169e848260208601613b77565b8051612c308161341b565b600060e08284031215613c3357613c33600080fd5b613c3d60e06134c9565b90506000613c4b8484613a54565b825250602082015167ffffffffffffffff811115613c6b57613c6b600080fd5b613c7784828501613bef565b6020830152506040613c8b84828501613a83565b6040830152506060613c9f84828501613c13565b6060830152506080613cb384828501613a54565b60808301525060a0613cc784828501613c13565b60a08301525060c082015167ffffffffffffffff811115613cea57613cea600080fd5b613cf684828501613aee565b60c08301525092915050565b600060208284031215613d1757613d17600080fd5b815167ffffffffffffffff811115613d3157613d31600080fd5b61169e84828501613c1e565b634e487b7160e01b600052601160045260246000fd5b600082821015613d6557613d65613d3d565b500390565b6000612c306139138381565b6132b981613d6a565b6000613d89825190565b808452602084019350613da0818560208601613a8e565b601f19601f8201165b9093019392505050565b60e08101613dc1828a61389a565b613dce6020830189613d76565b613ddb604083018861389a565b613de86060830187613404565b613df5608083018661389a565b613e0260a08301856133ed565b81810360c0830152613e148184613d7f565b9998505050505050505050565b6001600160e01b031981166132b9565b60608101613e3f8286613404565b613e4c6020830185613e21565b61169e60408301846132b5565b60408101613e678285613404565b612dc86020830184613404565b60e08101613e82828a61389a565b613e8f6020830189613d76565b613ddb6040830188613d76565b600781526000602082017f746b696e206d6d00000000000000000000000000000000000000000000000000815291506139de565b60208082528101612c3081613e9c565b8051612c308161346b565b600060408284031215613f0057613f00600080fd5b613f0a60406134c9565b90506000613b3f8484613ee0565b600060208284031215613f2d57613f2d600080fd5b815167ffffffffffffffff811115613f4757613f47600080fd5b61169e84828501613eeb565b600f81526000602082017f63627269646765206e6f74207365740000000000000000000000000000000000815291506139de565b60208082528101612c3081613f53565b67ffffffffffffffff81166132b9565b60c08101613fb58289613f97565b613fc26020830188613404565b613fcf604083018761389a565b613fdc6060830186613404565b8181036080830152613fee8185613d7f565b905081810360a08301526140028184613d7f565b98975050505050505050565b60006020828403121561402357614023600080fd5b815167ffffffffffffffff81111561403d5761403d600080fd5b61169e84828501613aee565b6000612c3082613913565b600981526000602082017f73656e64206661696c0000000000000000000000000000000000000000000000815291506139de565b60208082528101612c3081614054565b60e081016140a6828a61389a565b613dce602083018961389a565b601481526000602082017f706172616d732073697a65206d69736d61746368000000000000000000000000815291506139de565b60208082528101612c30816140b3565b634e487b7160e01b600052603260045260246000fd5b6000808335601e193685900301811261412857614128600080fd5b80840192508235915067ffffffffffffffff82111561414957614149600080fd5b602083019250600182023603831315612bf557612bf5600080fd5b600061417183858461350b565b50500190565b600061169e828486614164565b6000600019820361419757614197613d3d565b5060010190565b81835260006020840193506141b483858461350b565b601f19601f840116613da9565b6000612dc584848461419e565b6000808335601e19368590030181126141e9576141e9600080fd5b83810160208101935035915067ffffffffffffffff82111561420d5761420d600080fd5b36829003831315612bf557612bf5600080fd5b818352600060208401935083602084028101838060005b8781101561427257848403895261424e82846141ce565b6142598682846141c1565b95506020840160209b909b019a93505050600101614237565b5091979650505050505050565b600061428b8383613404565b505060200190565b6000612dc86020840184613289565b8183526000602084019350818060005b858110156142df576142c48284614293565b6142ce888261427f565b9750602083019250506001016142b2565b509495945050505050565b604080825281016142fc818688614220565b905081810360208301526143118184866142a2565b9695505050505050565b60006020828403121561433057614330600080fd5b600061169e848461347b565b600381526000602082016206e6f760ec1b815291506139de565b60208082528101612c308161433c565b601b81526000602082017f62726964676520646f6573206e6f7420737570706f7274206d73670000000000815291506139de565b60208082528101612c3081614366565b601281526000602082017f756e737570706f72746564206272696467650000000000000000000000000000815291506139de565b60208082528101612c30816143aa565b60008235603e193684900301811261440857614408600080fd5b9190910192915050565b60006040828403121561442757614427600080fd5b61443160406134c9565b9050600061443f8484613289565b825250602082013567ffffffffffffffff81111561445f5761445f600080fd5b613b6b84828501613550565b6000612c303683614412565b600061448561352584613a5f565b838152905060208082019084028301858111156144a4576144a4600080fd5b835b81811015613be557803567ffffffffffffffff8111156144c8576144c8600080fd5b8086016144d58982614412565b85525050602092830192016144a6565b6000612dc8368484614477565b602b81526000602082017f746f6b656e20696e2f6f7574206d757374206e6f7420657175616c206966206581527f7869737473207377617073000000000000000000000000000000000000000000602082015291505b5060400190565b60208082528101612c30816144f2565b60006020828403121561457457614574600080fd5b600061169e8484613423565b601281526000602082017f746b696e206e6f206e6174697665577261700000000000000000000000000000815291506139de565b60208082528101612c3081614580565b600b81526000602082017f696e7366636e7420616d74000000000000000000000000000000000000000000815291506139de565b60208082528101612c30816145c4565b6000610220828403121561461e5761461e600080fd5b6146296102206134c9565b905060006146378484613289565b82525060206146488484830161347b565b602083015250604061465c84828501613289565b60408301525060606146708482850161347b565b606083015250608082013567ffffffffffffffff81111561469357614693600080fd5b61469f84828501613550565b60808301525060a082013567ffffffffffffffff8111156146c2576146c2600080fd5b6146ce84828501613550565b60a08301525060c06146e284828501613423565b60c08301525060e06146f684828501613423565b60e08301525061010061470b848285016132d3565b61010083015250610120614721848285016132d3565b6101208301525061014082013567ffffffffffffffff81111561474657614746600080fd5b61475284828501613550565b61014083015250610160614768848285016132d3565b6101608301525061018061477e84828501613289565b610180830152506101a061479484828501613289565b6101a0830152506101c06147aa84828501613289565b6101c0830152506101e06147c084828501613423565b6101e08301525061020082013567ffffffffffffffff8111156147e5576147e5600080fd5b6147f184828501613550565b6102008301525092915050565b6000612c303683614608565b60408101613e678285613e21565b601181526000602082017f6e6f742066656520636f6c6c6563746f72000000000000000000000000000000815291506139de565b60208082528101612c3081614818565b601281526000602082017f73656e64206e6174697665206661696c65640000000000000000000000000000815291506139de565b60208082528101612c308161485c565b6000602082840312156148b5576148b5600080fd5b600061169e8484613a54565b602681526000602082017f4f776e61626c653a206e6577206f776e657220697320746865207a65726f206181527f646472657373000000000000000000000000000000000000000000000000000060208201529150614548565b60208082528101612c30816148c1565b601881526000602082017f6e6f206e6174697665207472616e7366657272656420696e0000000000000000815291506139de565b60208082528101612c308161492b565b600082601f83011261498357614983600080fd5b813561169e848260208601614477565b600060e082840312156149a8576149a8600080fd5b6149b260e06134c9565b905060006149c084846132d3565b825250602082013567ffffffffffffffff8111156149e0576149e0600080fd5b6149ec8482850161496f565b6020830152506040614a0084828501613289565b6040830152506060614a1484828501613423565b6060830152506080614a28848285016132d3565b60808301525060a0614a3c84828501613423565b60a08301525060c082013567ffffffffffffffff811115614a5f57614a5f600080fd5b613cf684828501613550565b600060208284031215614a8057614a80600080fd5b813567ffffffffffffffff811115614a9a57614a9a600080fd5b61169e84828501614993565b60208082527f4f776e61626c653a2063616c6c6572206973206e6f7420746865206f776e6572910190815260006139de565b60208082528101612c3081614aa6565b600060208284031215614afd57614afd600080fd5b600061169e8484613a83565b600c81526000602082017f746b206e6f206e61746976650000000000000000000000000000000000000000815291506139de565b60208082528101612c3081614b09565b6000612c3082516001600160e01b03191690565b6000614b6b825190565b60208301614b7881614b4d565b92506004821015614b9f57614b9a6001600160e01b0319836004036008021b90565b831692505b5050919050565b600f81526000602082017f756e737570706f72746564206465780000000000000000000000000000000000815291506139de565b60208082528101612c3081614ba6565b80516000906040840190614bfe8582613404565b5060208301518482036020860152610e858282613d7f565b60208082528101612dc88184614bea565b600080600060608486031215614c3f57614c3f600080fd5b6000614c4b8686613a54565b9350506020614c5c86828701613a83565b925050604061367a86828701613a83565b600d81526000602082017f746b696e206d69736d6174636800000000000000000000000000000000000000815291506139de565b60208082528101612c3081614c6d565b600c81526000602082017f746b6f206d69736d617463680000000000000000000000000000000000000000815291506139de565b60208082528101612c3081614cb1565b60008219821115614d0857614d08613d3d565b500190565b60608082528101614d1e8186613d7f565b9050614d2d602083018561389a565b61169e6040830184613404565b6000614d44825190565b614d52818560208601613a8e565b9290920192915050565b6000612dc88284614d3a565b600b81526000602082017f73776170206661696c6564000000000000000000000000000000000000000000815291506139de565b60208082528101612c3081614d68565b601081526000602082017f616c6c207377617073206661696c656400000000000000000000000000000000815291506139de565b60208082528101612c3081614dac565b60408101614dfe8285613404565b612dc8602083018461389a565b6000612dc88383614bea565b6000614e21825190565b80845260208401935083602082028501614e3b8560200190565b8060005b858110156142725784840389528151614e588582614e0b565b94506020830160209a909a0199925050600101614e3f565b805160009060e0840190614e84858261389a565b5060208301518482036020860152614e9c8282614e17565b9150506040830151614eb16040860182613404565b506060830151614ec460608601826132b5565b506080830151614ed7608086018261389a565b5060a0830151614eea60a08601826132b5565b5060c083015184820360c0860152610e858282613d7f565b60208082528101612dc88184614e70565b60608101614f218286613404565b614f2e6020830185613404565b61169e604083018461389a565b600981526000602082017f73776170206661696c0000000000000000000000000000000000000000000000815291506139de565b60208082528101612c3081614f3b565b60a08101614f8d828861389a565b614f9a602083018761389a565b614fa76040830186613404565b614fb4606083018561389a565b6143116080830184613404565b600c81526000602082017f636463206e6f20666f756e640000000000000000000000000000000000000000815291506139de565b60208082528101612c3081614fc1565b600081600019048311821515161561501f5761501f613d3d565b500290565b634e487b7160e01b600052601260045260246000fd5b60008261504957615049615024565b500490565b60006020828403121561506357615063600080fd5b600061169e8484613c13565b602a81526000602082017f5361666545524332303a204552433230206f7065726174696f6e20646964206e81527f6f7420737563636565640000000000000000000000000000000000000000000060208201529150614548565b60208082528101612c308161506f565b6000612c308260601b90565b6000612c30826150d9565b6132b96150fc82613264565b6150e5565b6000612c308260c01b90565b6132b967ffffffffffffffff8216615101565b600061512c82876150f0565b60148201915061513c82866150f0565b60148201915061514c828561510d565b60088201915061515c828461510d565b50600801949350505050565b6101408101615177828d61389a565b8181036020830152615189818c613d7f565b9050615198604083018b613f97565b6151a5606083018a61389a565b6151b26080830189613404565b6151bf60a0830188613404565b6151cc60c0830187613404565b6151d960e0830186613404565b6151e761010083018561389a565b8181036101208301526151fa8184613d7f565b9c9b505050505050505050505050565b7f6578656375746f722066656500000000000000000000000000000000000000008152600c01600061523c828961510d565b60088201915061524c828861510d565b60088201915061525c828761389a565b60208201915061526c82866150f0565b60148201915061527c828561389a565b60208201915061528c828461389a565b506020019695505050505050565b601181526000602082017f646561646c696e65206578636565646564000000000000000000000000000000815291506139de565b60208082528101612c308161529a565b602681526000602082017f416464726573733a20696e73756666696369656e742062616c616e636520666f81527f722063616c6c000000000000000000000000000000000000000000000000000060208201529150614548565b60208082528101612c30816152de565b601d81526000602082017f416464726573733a2063616c6c20746f206e6f6e2d636f6e7472616374000000815291506139de565b60208082528101612c3081615348565b7f19457468657265756d205369676e6564204d6573736167653a0a3332000000008152601c0160006153be828461389a565b50602001919050565b600e81526000602082017f696e76616c6964207369676e6572000000000000000000000000000000000000815291506139de565b60208082528101612c30816153c7565b60208082528101612dc88184613d7f565b601881526000602082017f45434453413a20696e76616c6964207369676e61747572650000000000000000815291506139de565b60208082528101612c308161541c565b601f81526000602082017f45434453413a20696e76616c6964207369676e6174757265206c656e67746800815291506139de565b60208082528101612c3081615460565b602281526000602082017f45434453413a20696e76616c6964207369676e6174757265202773272076616c815261756560f01b60208201529150614548565b60208082528101612c30816154a4565b602281526000602082017f45434453413a20696e76616c6964207369676e6174757265202776272076616c815261756560f01b60208201529150614548565b60208082528101612c30816154f3565b60ff81166132b9565b60808101615559828761389a565b6155666020830186615542565b615573604083018561389a565b610e85606083018461389a56fea2646970667358221220817cb2cfee1a808d9f231e9263ed336fb57e08b611df4ac975bb01b6293c7f5f64736f6c634300080f0033",
  "devdoc": {
    "author": "Chainhop Dex TeamPadoriku",
    "events": {
      "DirectSwap(bytes32,uint256,address,uint256,address)": {
        "params": {
          "amountIn": "the input amount approved by the sender",
          "amountOut": "the output amount gained after swapping using the input tokens",
          "id": "see _computeId()",
          "tokenIn": "the input token approved by the sender",
          "tokenOut": "the output token gained after swapping using the input tokens"
        }
      },
      "RequestDone(bytes32,uint256,uint256,address,uint256,uint8,bytes)": {
        "details": "refundAmount may be fill by either a complete refund or when allowPartialFill is on and some swaps fails in the swap routes",
        "params": {
          "dstAmount": "the final output token (after bridging and swapping) desired by the sender",
          "feeCollected": "the fee chainhop deducts from bridge out token",
          "id": "see _computeId()",
          "refundAmount": "the amount refunded to the receiver in bridge token",
          "refundToken": "bridge out token",
          "status": "see RequestStatus"
        }
      },
      "RequestSent(bytes32,bytes,uint64,uint256,address,address,address,address,uint256,string)": {
        "params": {
          "bridgeAmount": "the amount of the bridgeToken to bridge",
          "bridgeOutReceiver": "the receiver (user or dst TransferSwapper) of the bridge token",
          "bridgeProvider": "the bridge provider",
          "bridgeResp": "arbitrary response data returned by bridge",
          "bridgeToken": "the token used for bridging",
          "dstChainId": "destination chain id",
          "dstToken": "the final output token (after bridging and swapping) desired by the sender",
          "id": "see _computeId()",
          "srcAmount": "input amount approved by the sender",
          "srcToken": "the input token approved by the sender"
        }
      }
    },
    "kind": "dev",
    "methods": {
      "executeMessage(address,uint64,bytes,address)": {
        "params": {
          "_executor": "Address who called the MessageBus execution function",
          "_message": "Arbitrary message bytes originated from and encoded by the source app contract",
          "_sender": "The address of the source app contract",
          "_srcChainId": "The source chain ID where the transfer is originated from"
        }
      },
      "executeMessageWithTransfer(address,address,uint256,uint64,bytes,address)": {
        "details": "If allowPartialFill is off, this function reverts as soon as one swap in swap routes failsThis function is called and is only callable by MessageBus. The transaction of such call is triggered by executor.Bridge contract *always* sends native token to its receiver (this contract) even though the _token field is always an ERC20 token",
        "params": {
          "_amount": "the amount of token received by this contract",
          "_token": "the token received by this contract"
        },
        "returns": {
          "_0": "ok whether the processing is successful"
        }
      },
      "executeMessageWithTransferFallback(address,address,uint256,uint64,bytes,address)": {
        "details": "Only called if executeMessageWithTransfer revertsBridge contract *always* sends native token to its receiver (this contract) even though the _token field is always an ERC20 token",
        "params": {
          "_amount": "the amount of token received by this contract",
          "_token": "the token received by this contract"
        },
        "returns": {
          "_0": "ok whether the processing is successful"
        }
      },
      "executeMessageWithTransferRefund(address,uint256,bytes,address)": {
        "details": "only MessageBus can call this function, this requires the user to get sigs of the message from SGNBridge contract *always* sends native token to its receiver (this contract) even though the _token field is always an ERC20 token",
        "params": {
          "_amount": "the amount of token received by this contract",
          "_token": "the token received by this contract"
        },
        "returns": {
          "_0": "ok whether the processing is successful"
        }
      },
      "owner()": {
        "details": "Returns the address of the current owner."
      },
      "renounceOwnership()": {
        "details": "Leaves the contract without owner. It will not be possible to call `onlyOwner` functions anymore. Can only be called by the current owner. NOTE: Renouncing ownership will leave the contract without an owner, thereby removing any functionality that is only available to the owner."
      },
      "transferOwnership(address)": {
        "details": "Transfers ownership of the contract to a new account (`newOwner`). Can only be called by the current owner."
      }
    },
    "title": "An app that enables swapping on a chain, transferring to another chain and swapping another time on the destination chain before sending the result tokens to a user",
    "version": 1
  },
  "userdoc": {
    "events": {
      "DirectSwap(bytes32,uint256,address,uint256,address)": {
        "notice": "Emitted when requested dstChainId == srcChainId, no bridging"
      },
      "RequestDone(bytes32,uint256,uint256,address,uint256,uint8,bytes)": {
        "notice": "Emitted when operations on dst chain is done."
      },
      "RequestSent(bytes32,bytes,uint64,uint256,address,address,address,address,uint256,string)": {
        "notice": "Emitted when operations on src chain is done, the transfer is sent through the bridge"
      }
    },
    "kind": "user",
    "methods": {
      "executeMessage(address,uint64,bytes,address)": {
        "notice": "Called by MessageBus (MessageBusReceiver)"
      },
      "executeMessageWithTransfer(address,address,uint256,uint64,bytes,address)": {
        "notice": "Executes a swap if needed, then sends the output token to the receiver"
      },
      "executeMessageWithTransferFallback(address,address,uint256,uint64,bytes,address)": {
        "notice": "Sends the received token to the receiver"
      },
      "executeMessageWithTransferRefund(address,uint256,bytes,address)": {
        "notice": "Used to trigger refund when bridging fails due to large slippage"
      },
      "nativeWrap()": {
        "notice": "erc20 wrap of the gas token of this chain, e.g. WETH"
      },
      "transferWithSwap((address,uint64,address,uint64,string,bytes,bool,bool,uint256,uint256,bytes,uint256,address,address,address,bool,bytes),(address,bytes)[],(address,bytes)[])": {
        "notice": "swaps if needed, then transfer the token to another chain along with an instruction on how to swap on that chain"
      }
    },
    "version": 1
  },
  "storageLayout": {
    "storage": [
      {
        "astId": 7,
        "contract": "contracts/TransferSwapper.sol:TransferSwapper",
        "label": "_owner",
        "offset": 0,
        "slot": "0",
        "type": "t_address"
      },
      {
        "astId": 8250,
        "contract": "contracts/TransferSwapper.sol:TransferSwapper",
        "label": "messageBus",
        "offset": 0,
        "slot": "1",
        "type": "t_address"
      },
      {
        "astId": 8277,
        "contract": "contracts/TransferSwapper.sol:TransferSwapper",
        "label": "testMode",
        "offset": 20,
        "slot": "1",
        "type": "t_bool"
      },
      {
        "astId": 2286,
        "contract": "contracts/TransferSwapper.sol:TransferSwapper",
        "label": "selector2codec",
        "offset": 0,
        "slot": "2",
        "type": "t_mapping(t_bytes4,t_contract(ICodec)7423)"
      },
      {
        "astId": 2289,
        "contract": "contracts/TransferSwapper.sol:TransferSwapper",
        "label": "codecs",
        "offset": 0,
        "slot": "3",
        "type": "t_array(t_address)dyn_storage"
      },
      {
        "astId": 2541,
        "contract": "contracts/TransferSwapper.sol:TransferSwapper",
        "label": "dexRegistry",
        "offset": 0,
        "slot": "4",
        "type": "t_mapping(t_address,t_mapping(t_bytes4,t_bool))"
      },
      {
        "astId": 2884,
        "contract": "contracts/TransferSwapper.sol:TransferSwapper",
        "label": "externalSwap",
        "offset": 0,
        "slot": "5",
        "type": "t_mapping(t_address,t_bool)"
      },
      {
        "astId": 2802,
        "contract": "contracts/TransferSwapper.sol:TransferSwapper",
        "label": "signer",
        "offset": 0,
        "slot": "6",
        "type": "t_address"
      },
      {
        "astId": 2658,
        "contract": "contracts/TransferSwapper.sol:TransferSwapper",
        "label": "feeCollector",
        "offset": 0,
        "slot": "7",
        "type": "t_address"
      },
      {
        "astId": 231,
        "contract": "contracts/TransferSwapper.sol:TransferSwapper",
        "label": "_status",
        "offset": 0,
        "slot": "8",
        "type": "t_uint256"
      },
      {
        "astId": 2217,
        "contract": "contracts/TransferSwapper.sol:TransferSwapper",
        "label": "bridges",
        "offset": 0,
        "slot": "9",
        "type": "t_mapping(t_bytes32,t_contract(IBridgeAdapter)7148)"
      },
      {
        "astId": 3620,
        "contract": "contracts/TransferSwapper.sol:TransferSwapper",
        "label": "nativeWrap",
        "offset": 0,
        "slot": "10",
        "type": "t_address"
      }
    ],
    "types": {
      "t_address": {
        "encoding": "inplace",
        "label": "address",
        "numberOfBytes": "20"
      },
      "t_array(t_address)dyn_storage": {
        "base": "t_address",
        "encoding": "dynamic_array",
        "label": "address[]",
        "numberOfBytes": "32"
      },
      "t_bool": {
        "encoding": "inplace",
        "label": "bool",
        "numberOfBytes": "1"
      },
      "t_bytes32": {
        "encoding": "inplace",
        "label": "bytes32",
        "numberOfBytes": "32"
      },
      "t_bytes4": {
        "encoding": "inplace",
        "label": "bytes4",
        "numberOfBytes": "4"
      },
      "t_contract(IBridgeAdapter)7148": {
        "encoding": "inplace",
        "label": "contract IBridgeAdapter",
        "numberOfBytes": "20"
      },
      "t_contract(ICodec)7423": {
        "encoding": "inplace",
        "label": "contract ICodec",
        "numberOfBytes": "20"
      },
      "t_mapping(t_address,t_bool)": {
        "encoding": "mapping",
        "key": "t_address",
        "label": "mapping(address => bool)",
        "numberOfBytes": "32",
        "value": "t_bool"
      },
      "t_mapping(t_address,t_mapping(t_bytes4,t_bool))": {
        "encoding": "mapping",
        "key": "t_address",
        "label": "mapping(address => mapping(bytes4 => bool))",
        "numberOfBytes": "32",
        "value": "t_mapping(t_bytes4,t_bool)"
      },
      "t_mapping(t_bytes32,t_contract(IBridgeAdapter)7148)": {
        "encoding": "mapping",
        "key": "t_bytes32",
        "label": "mapping(bytes32 => contract IBridgeAdapter)",
        "numberOfBytes": "32",
        "value": "t_contract(IBridgeAdapter)7148"
      },
      "t_mapping(t_bytes4,t_bool)": {
        "encoding": "mapping",
        "key": "t_bytes4",
        "label": "mapping(bytes4 => bool)",
        "numberOfBytes": "32",
        "value": "t_bool"
      },
      "t_mapping(t_bytes4,t_contract(ICodec)7423)": {
        "encoding": "mapping",
        "key": "t_bytes4",
        "label": "mapping(bytes4 => contract ICodec)",
        "numberOfBytes": "32",
        "value": "t_contract(ICodec)7423"
      },
      "t_uint256": {
        "encoding": "inplace",
        "label": "uint256",
        "numberOfBytes": "32"
      }
    }
  }
}