{
  "address": "0xcecA0A7C061ae03548349cE6efEfF0995B0ABBc3",
  "abi": [
    {
      "inputs": [
        {
          "internalType": "address",
          "name": "_mainContract",
          "type": "address"
        },
        {
          "internalType": "address[]",
          "name": "_anyswapRouters",
          "type": "address[]"
        }
      ],
      "stateMutability": "nonpayable",
      "type": "constructor"
    },
    {
      "anonymous": false,
      "inputs": [
        {
          "indexed": false,
          "internalType": "address",
          "name": "mainContract",
          "type": "address"
        }
      ],
      "name": "MainContractUpdated",
      "type": "event"
    },
    {
      "anonymous": false,
      "inputs": [
        {
          "indexed": true,
          "internalType": "address",
          "name": "previousOwner",
          "type": "address"
        },
        {
          "indexed": true,
          "internalType": "address",
          "name": "newOwner",
          "type": "address"
        }
      ],
      "name": "OwnershipTransferred",
      "type": "event"
    },
    {
      "anonymous": false,
      "inputs": [
        {
          "indexed": false,
          "internalType": "address",
          "name": "router",
          "type": "address"
        },
        {
          "indexed": false,
          "internalType": "bool",
          "name": "enabled",
          "type": "bool"
        }
      ],
      "name": "SupportedRouterUpdated",
      "type": "event"
    },
    {
      "inputs": [
        {
          "internalType": "uint64",
          "name": "_dstChainId",
          "type": "uint64"
        },
        {
          "internalType": "address",
          "name": "_receiver",
          "type": "address"
        },
        {
          "internalType": "uint256",
          "name": "_amount",
          "type": "uint256"
        },
        {
          "internalType": "address",
          "name": "_token",
          "type": "address"
        },
        {
          "internalType": "bytes",
          "name": "_bridgeParams",
          "type": "bytes"
        },
        {
          "internalType": "bytes",
          "name": "",
          "type": "bytes"
        }
      ],
      "name": "bridge",
      "outputs": [
        {
          "internalType": "bytes",
          "name": "bridgeResp",
          "type": "bytes"
        }
      ],
      "stateMutability": "payable",
      "type": "function"
    },
    {
      "inputs": [],
      "name": "mainContract",
      "outputs": [
        {
          "internalType": "address",
          "name": "",
          "type": "address"
        }
      ],
      "stateMutability": "view",
      "type": "function"
    },
    {
      "inputs": [],
      "name": "owner",
      "outputs": [
        {
          "internalType": "address",
          "name": "",
          "type": "address"
        }
      ],
      "stateMutability": "view",
      "type": "function"
    },
    {
      "inputs": [],
      "name": "renounceOwnership",
      "outputs": [],
      "stateMutability": "nonpayable",
      "type": "function"
    },
    {
      "inputs": [
        {
          "internalType": "address",
          "name": "_router",
          "type": "address"
        },
        {
          "internalType": "bool",
          "name": "_enabled",
          "type": "bool"
        }
      ],
      "name": "setSupportedRouter",
      "outputs": [],
      "stateMutability": "nonpayable",
      "type": "function"
    },
    {
      "inputs": [
        {
          "internalType": "address",
          "name": "",
          "type": "address"
        }
      ],
      "name": "supportedRouters",
      "outputs": [
        {
          "internalType": "bool",
          "name": "",
          "type": "bool"
        }
      ],
      "stateMutability": "view",
      "type": "function"
    },
    {
      "inputs": [
        {
          "internalType": "address",
          "name": "newOwner",
          "type": "address"
        }
      ],
      "name": "transferOwnership",
      "outputs": [],
      "stateMutability": "nonpayable",
      "type": "function"
    },
    {
      "inputs": [
        {
          "internalType": "bytes32",
          "name": "",
          "type": "bytes32"
        }
      ],
      "name": "transfers",
      "outputs": [
        {
          "internalType": "bool",
          "name": "",
          "type": "bool"
        }
      ],
      "stateMutability": "view",
      "type": "function"
    },
    {
      "inputs": [
        {
          "internalType": "address",
          "name": "_mainContract",
          "type": "address"
        }
      ],
      "name": "updateMainContract",
      "outputs": [],
      "stateMutability": "nonpayable",
      "type": "function"
    }
  ],
  "transactionHash": "0x34f3168808c77811d2c2e9e48d7a833cb8f711417fded35d1b0512f080ab86f4",
  "args": [
    "0x5F3cf896C1E18550389Ee4C6b298907649129F21",
    [
      "0xd1c5966f9f5ee6881ff6b261bbeda45972b1b5f3",
      "0xabd380327fe66724ffda91a87c772fb8d00be488",
      "0x92c079d3155c2722dbf7e65017a5baf9cd15561c",
      "0xf9736ec3926703e85c843fc972bd89a7f8e827c0"
    ]
  ],
  "numDeployments": 2,
  "solcInputHash": "cc764e07c74dfaf8370243e068d6546a",
  "bytecode": "0x60806040523480156200001157600080fd5b50604051620016dd380380620016dd8339810160408190526200003491620002da565b6200003f336200012c565b600180546001600160a01b0319166001600160a01b03841617905560005b8151811015620001235760006001600160a01b031682828151811062000087576200008762000339565b60200260200101516001600160a01b031603620000c15760405162461bcd60e51b8152600401620000b8906200034f565b60405180910390fd5b600160026000848481518110620000dc57620000dc62000339565b6020908102919091018101516001600160a01b03168252810191909152604001600020805460ff1916911515919091179055806200011a8162000387565b9150506200005d565b505050620003a4565b600080546001600160a01b038381166001600160a01b0319831681178455604051919092169283917f8be0079c531659141344cd1fd0a4f28419497f9722a3daafe3b4186f6b6457e09190a35050565b60006001600160a01b0382165b92915050565b6200019a816200017c565b8114620001a657600080fd5b50565b805162000189816200018f565b634e487b7160e01b600052604160045260246000fd5b601f19601f83011681018181106001600160401b0382111715620001f457620001f4620001b6565b6040525050565b60006200020760405190565b9050620002158282620001cc565b919050565b60006001600160401b03821115620002365762000236620001b6565b5060209081020190565b60006200025762000251846200021a565b620001fb565b83815290506020808201908402830185811115620002785762000278600080fd5b835b81811015620002a05780620002908882620001a9565b845250602092830192016200027a565b5050509392505050565b600082601f830112620002c057620002c0600080fd5b8151620002d284826020860162000240565b949350505050565b60008060408385031215620002f257620002f2600080fd5b6000620003008585620001a9565b92505060208301516001600160401b03811115620003215762000321600080fd5b6200032f85828601620002aa565b9150509250929050565b634e487b7160e01b600052603260045260246000fd5b602080825281016200018981600381526206e6f760ec1b602082015260400190565b634e487b7160e01b600052601160045260246000fd5b600060001982036200039d576200039d62000371565b5060010190565b61132980620003b46000396000f3fe6080604052600436106100965760003560e01c80639879c48d11610069578063df8bbc591161004e578063df8bbc591461018f578063f2fde38b146101af578063f8e9c5c0146101cf57600080fd5b80639879c48d1461013f578063d270e7ab1461016f57600080fd5b80633c64f04b1461009b578063715018a6146100e1578063834bc3ea146100f85780638da5cb5b14610118575b600080fd5b3480156100a757600080fd5b506100cb6100b63660046109bd565b60036020526000908152604090205460ff1681565b6040516100d891906109e8565b60405180910390f35b3480156100ed57600080fd5b506100f66101ef565b005b61010b610106366004610b31565b610203565b6040516100d89190610c4f565b34801561012457600080fd5b506000546001600160a01b03165b6040516100d89190610c69565b34801561014b57600080fd5b506100cb61015a366004610c77565b60026020526000908152604090205460ff1681565b34801561017b57600080fd5b50600154610132906001600160a01b031681565b34801561019b57600080fd5b506100f66101aa366004610c77565b6104e0565b3480156101bb57600080fd5b506100f66101ca366004610c77565b61054b565b3480156101db57600080fd5b506100f66101ea366004610cab565b610585565b6101f761062f565b6102016000610659565b565b6001546060906001600160a01b031633146102395760405162461bcd60e51b815260040161023090610d1f565b60405180910390fd5b60008380602001905181019061024f9190610da3565b6040808201516001600160a01b031660009081526002602052205490915060ff1661028c5760405162461bcd60e51b815260040161023090610df8565b80516040516000916102aa918a9189918b918e914690602001610e58565b60408051601f1981840301815291815281516020928301206000818152600390935291205490915060ff16156102f25760405162461bcd60e51b815260040161023090610ef6565b6000818152600360205260409020805460ff191660011790556103206001600160a01b03871633308a6106b6565b604082015161033a906001600160a01b0388169089610741565b60006001600160a01b031682602001516001600160a01b0316636f307dc36040518163ffffffff1660e01b8152600401602060405180830381865afa158015610387573d6000803e3d6000fd5b505050506040513d601f19601f820116820180604052508101906103ab9190610f06565b6001600160a01b03161461042a5781604001516001600160a01b031663edbdf5e283602001518a8a8d6040518563ffffffff1660e01b81526004016103f39493929190610f46565b600060405180830381600087803b15801561040d57600080fd5b505af1158015610421573d6000803e3d6000fd5b50505050610497565b81604001516001600160a01b031663241dc2df83602001518a8a8d6040518563ffffffff1660e01b81526004016104649493929190610f46565b600060405180830381600087803b15801561047e57600080fd5b505af1158015610492573d6000803e3d6000fd5b505050505b60408201516104b2906001600160a01b038816906000610741565b806040516020016104c39190610f84565b604051602081830303815290604052925050509695505050505050565b6104e861062f565b6001805473ffffffffffffffffffffffffffffffffffffffff19166001600160a01b0383161790556040517f50d0cbf2750e0276715bec254c588e057e0b05e87927eab7ebbad47fe1e88b4b90610540908390610c69565b60405180910390a150565b61055361062f565b6001600160a01b0381166105795760405162461bcd60e51b815260040161023090610ff6565b61058281610659565b50565b61058d61062f565b6001600160a01b03821660009081526002602052604090205460ff16811515811515036105cc5760405162461bcd60e51b815260040161023090611020565b6001600160a01b03831660009081526002602052604090819020805460ff1916841515179055517f19df4f9d38a9b103263e051a2824d8cd9cd6dc4205d136abbd3932a9eeede061906106229085908590611030565b60405180910390a1505050565b6000546001600160a01b031633146102015760405162461bcd60e51b81526004016102309061107d565b600080546001600160a01b0383811673ffffffffffffffffffffffffffffffffffffffff19831681178455604051919092169283917f8be0079c531659141344cd1fd0a4f28419497f9722a3daafe3b4186f6b6457e09190a35050565b61073b846323b872dd60e01b8585856040516024016106d79392919061108d565b60408051601f198184030181529190526020810180517bffffffffffffffffffffffffffffffffffffffffffffffffffffffff167fffffffff00000000000000000000000000000000000000000000000000000000909316929092179091526107fa565b50505050565b8015806107ba5750604051636eb1769f60e11b81526001600160a01b0384169063dd62ed3e9061077790309086906004016110b5565b602060405180830381865afa158015610794573d6000803e3d6000fd5b505050506040513d601f19601f820116820180604052508101906107b891906110db565b155b6107d65760405162461bcd60e51b815260040161023090611156565b6107f58363095ea7b360e01b84846040516024016106d7929190611166565b505050565b600061084f826040518060400160405280602081526020017f5361666545524332303a206c6f772d6c6576656c2063616c6c206661696c6564815250856001600160a01b03166108899092919063ffffffff16565b8051909150156107f5578080602001905181019061086d919061118c565b6107f55760405162461bcd60e51b815260040161023090611207565b606061089884846000856108a2565b90505b9392505050565b6060824710156108c45760405162461bcd60e51b815260040161023090611271565b6001600160a01b0385163b6108eb5760405162461bcd60e51b8152600401610230906112b5565b600080866001600160a01b0316858760405161090791906112e7565b60006040518083038185875af1925050503d8060008114610944576040519150601f19603f3d011682016040523d82523d6000602084013e610949565b606091505b5091509150610959828286610966565b925050505b949350505050565b6060831561097557508161089b565b8251156109855782518084602001fd5b8160405162461bcd60e51b81526004016102309190610c4f565b805b811461058257600080fd5b80356109b78161099f565b92915050565b6000602082840312156109d2576109d2600080fd5b600061095e84846109ac565b8015155b82525050565b602081016109b782846109de565b67ffffffffffffffff81166109a1565b80356109b7816109f6565b60006001600160a01b0382166109b7565b6109a181610a11565b80356109b781610a22565b634e487b7160e01b600052604160045260246000fd5b601f19601f830116810181811067ffffffffffffffff82111715610a7257610a72610a36565b6040525050565b6000610a8460405190565b9050610a908282610a4c565b919050565b600067ffffffffffffffff821115610aaf57610aaf610a36565b601f19601f83011660200192915050565b82818337506000910152565b6000610adf610ada84610a95565b610a79565b905082815260208101848484011115610afa57610afa600080fd5b610b05848285610ac0565b509392505050565b600082601f830112610b2157610b21600080fd5b813561095e848260208601610acc565b60008060008060008060c08789031215610b4d57610b4d600080fd5b6000610b598989610a06565b9650506020610b6a89828a01610a2b565b9550506040610b7b89828a016109ac565b9450506060610b8c89828a01610a2b565b935050608087013567ffffffffffffffff811115610bac57610bac600080fd5b610bb889828a01610b0d565b92505060a087013567ffffffffffffffff811115610bd857610bd8600080fd5b610be489828a01610b0d565b9150509295509295509295565b60005b83811015610c0c578181015183820152602001610bf4565b8381111561073b5750506000910152565b6000610c27825190565b808452602084019350610c3e818560208601610bf1565b601f01601f19169290920192915050565b6020808252810161089b8184610c1d565b6109e281610a11565b602081016109b78284610c60565b600060208284031215610c8c57610c8c600080fd5b600061095e8484610a2b565b8015156109a1565b80356109b781610c98565b60008060408385031215610cc157610cc1600080fd5b6000610ccd8585610a2b565b9250506020610cde85828601610ca0565b9150509250929050565b601b81526000602082017f63616c6c6572206973206e6f74206d61696e20636f6e74726163740000000000815291505b5060200190565b602080825281016109b781610ce8565b80516109b7816109f6565b80516109b781610a22565b600060608284031215610d5a57610d5a600080fd5b610d646060610a79565b90506000610d728484610d2f565b8252506020610d8384848301610d3a565b6020830152506040610d9784828501610d3a565b60408301525092915050565b600060608284031215610db857610db8600080fd5b600061095e8484610d45565b600e81526000602082017f696c6c6567616c20726f7574657200000000000000000000000000000000000081529150610d18565b602080825281016109b781610dc4565b60006109b78260601b90565b60006109b782610e08565b6109e2610e2b82610a11565b610e14565b806109e2565b90565b60006109b78260c01b90565b6109e267ffffffffffffffff8216610e39565b6000610e648289610e1f565b601482019150610e748288610e1f565b601482019150610e848287610e30565b602082019150610e948286610e45565b600882019150610ea48285610e45565b600882019150610eb48284610e45565b506008019695505050505050565b600f81526000602082017f7472616e7366657220657869737473000000000000000000000000000000000081529150610d18565b602080825281016109b781610ec2565b600060208284031215610f1b57610f1b600080fd5b600061095e8484610d3a565b60006109b7610e3667ffffffffffffffff841681565b6109e281610f27565b60808101610f548287610c60565b610f616020830186610c60565b610f6e6040830185610e30565b610f7b6060830184610f3d565b95945050505050565b6000610f908284610e30565b50602001919050565b602681526000602082017f4f776e61626c653a206e6577206f776e657220697320746865207a65726f206181527f6464726573730000000000000000000000000000000000000000000000000000602082015291505b5060400190565b602080825281016109b781610f99565b600381526000602082016206e6f760ec1b81529150610d18565b602080825281016109b781611006565b6040810161103e8285610c60565b61089b60208301846109de565b60208082527f4f776e61626c653a2063616c6c6572206973206e6f7420746865206f776e657291019081526000610d18565b602080825281016109b78161104b565b6060810161109b8286610c60565b6110a86020830185610c60565b61095e6040830184610e30565b604081016110c38285610c60565b61089b6020830184610c60565b80516109b78161099f565b6000602082840312156110f0576110f0600080fd5b600061095e84846110d0565b603681526000602082017f5361666545524332303a20617070726f76652066726f6d206e6f6e2d7a65726f81527f20746f206e6f6e2d7a65726f20616c6c6f77616e63650000000000000000000060208201529150610fef565b602080825281016109b7816110fc565b604081016111748285610c60565b61089b6020830184610e30565b80516109b781610c98565b6000602082840312156111a1576111a1600080fd5b600061095e8484611181565b602a81526000602082017f5361666545524332303a204552433230206f7065726174696f6e20646964206e81527f6f7420737563636565640000000000000000000000000000000000000000000060208201529150610fef565b602080825281016109b7816111ad565b602681526000602082017f416464726573733a20696e73756666696369656e742062616c616e636520666f81527f722063616c6c000000000000000000000000000000000000000000000000000060208201529150610fef565b602080825281016109b781611217565b601d81526000602082017f416464726573733a2063616c6c20746f206e6f6e2d636f6e747261637400000081529150610d18565b602080825281016109b781611281565b60006112cf825190565b6112dd818560208601610bf1565b9290920192915050565b600061089b82846112c556fea2646970667358221220330948618bf084b5ce1c8f84e8580dde108c0504de34263828428183d1350a2b64736f6c634300080f0033",
  "devdoc": {
    "kind": "dev",
    "methods": {
      "owner()": {
        "details": "Returns the address of the current owner."
      },
      "renounceOwnership()": {
        "details": "Leaves the contract without owner. It will not be possible to call `onlyOwner` functions anymore. Can only be called by the current owner. NOTE: Renouncing ownership will leave the contract without an owner, thereby removing any functionality that is only available to the owner."
      },
      "transferOwnership(address)": {
        "details": "Transfers ownership of the contract to a new account (`newOwner`). Can only be called by the current owner."
      }
    },
    "version": 1
  },
  "userdoc": {
    "kind": "user",
    "methods": {},
    "version": 1
  },
  "storageLayout": {
    "storage": [
      {
        "astId": 7,
        "contract": "contracts/bridges/AnyswapAdapter.sol:AnyswapAdapter",
        "label": "_owner",
        "offset": 0,
        "slot": "0",
        "type": "t_address"
      },
      {
        "astId": 5131,
        "contract": "contracts/bridges/AnyswapAdapter.sol:AnyswapAdapter",
        "label": "mainContract",
        "offset": 0,
        "slot": "1",
        "type": "t_address"
      },
      {
        "astId": 5135,
        "contract": "contracts/bridges/AnyswapAdapter.sol:AnyswapAdapter",
        "label": "supportedRouters",
        "offset": 0,
        "slot": "2",
        "type": "t_mapping(t_address,t_bool)"
      },
      {
        "astId": 5139,
        "contract": "contracts/bridges/AnyswapAdapter.sol:AnyswapAdapter",
        "label": "transfers",
        "offset": 0,
        "slot": "3",
        "type": "t_mapping(t_bytes32,t_bool)"
      }
    ],
    "types": {
      "t_address": {
        "encoding": "inplace",
        "label": "address",
        "numberOfBytes": "20"
      },
      "t_bool": {
        "encoding": "inplace",
        "label": "bool",
        "numberOfBytes": "1"
      },
      "t_bytes32": {
        "encoding": "inplace",
        "label": "bytes32",
        "numberOfBytes": "32"
      },
      "t_mapping(t_address,t_bool)": {
        "encoding": "mapping",
        "key": "t_address",
        "label": "mapping(address => bool)",
        "numberOfBytes": "32",
        "value": "t_bool"
      },
      "t_mapping(t_bytes32,t_bool)": {
        "encoding": "mapping",
        "key": "t_bytes32",
        "label": "mapping(bytes32 => bool)",
        "numberOfBytes": "32",
        "value": "t_bool"
      }
    }
  }
}