{
  "address": "0x43a22D5923633f1A5C45d2e075fc79c686d8DB79",
  "abi": [
    {
      "anonymous": false,
      "inputs": [
        {
          "indexed": false,
          "internalType": "address",
          "name": "to",
          "type": "address"
        },
        {
          "indexed": false,
          "internalType": "address",
          "name": "token",
          "type": "address"
        },
        {
          "indexed": false,
          "internalType": "uint256",
          "name": "amount",
          "type": "uint256"
        },
        {
          "indexed": false,
          "internalType": "address",
          "name": "pocket",
          "type": "address"
        }
      ],
      "name": "Withdrawn",
      "type": "event"
    },
    {
      "inputs": [
        {
          "internalType": "bytes32",
          "name": "swapId",
          "type": "bytes32"
        },
        {
          "internalType": "address",
          "name": "token",
          "type": "address"
        },
        {
          "internalType": "address",
          "name": "to",
          "type": "address"
        }
      ],
      "name": "withdraw",
      "outputs": [],
      "stateMutability": "nonpayable",
      "type": "function"
    },
    {
      "inputs": [
        {
          "internalType": "bytes32",
          "name": "swapId",
          "type": "bytes32"
        },
        {
          "internalType": "address",
          "name": "to",
          "type": "address"
        }
      ],
      "name": "withdrawNative",
      "outputs": [],
      "stateMutability": "nonpayable",
      "type": "function"
    },
    {
      "stateMutability": "payable",
      "type": "receive"
    }
  ],
  "transactionHash": "0x7f18ed8c5a2c8d2a8a2b0f169fca651a94dc7fcf4d108ec59e1315189e56d653",
  "args": [],
  "numDeployments": 1,
  "solcInputHash": "9b3f4af3a07be4d95573210606c83c90",
  "bytecode": "0x608060405234801561001057600080fd5b506107aa806100206000396000f3fe60806040526004361061002d5760003560e01c806378572e6e14610039578063d98940171461005b57600080fd5b3661003457005b600080fd5b34801561004557600080fd5b506100596100543660046103fe565b61007b565b005b34801561006757600080fd5b5061005961007636600461043b565b610182565b476000610087846102b9565b9050600061009583476104a1565b9050600081116100c05760405162461bcd60e51b81526004016100b7906104ef565b60405180910390fd5b6000846001600160a01b0316826040516100d9906104ff565b60006040518083038185875af1925050503d8060008114610116576040519150601f19603f3d011682016040523d82523d6000602084013e61011b565b606091505b505090508061013c5760405162461bcd60e51b81526004016100b79061053b565b7f889d364b5102aee044ff370e2e6a836584e5618a16dce4f5b191459cf3903e5885600084866040516101729493929190610560565b60405180910390a1505050505050565b600061018d846102b9565b90506000836001600160a01b03166370a08231836040518263ffffffff1660e01b81526004016101bd919061059e565b602060405180830381865afa1580156101da573d6000803e3d6000fd5b505050506040513d601f19601f820116820180604052508101906101fe91906105b7565b6040516323b872dd60e01b81529091506001600160a01b038516906323b872dd90610231908590879086906004016105e0565b6020604051808303816000875af1158015610250573d6000803e3d6000fd5b505050506040513d601f19601f82011682018060405250810190610274919061061b565b507f889d364b5102aee044ff370e2e6a836584e5618a16dce4f5b191459cf3903e58838583856040516102aa9493929190610560565b60405180910390a15050505050565b600080604051806020016102cc906103ac565b601f19828203810183526040601f90920116818101909152600881527f636f6465206c656e0000000000000000000000000000000000000000000000006020820152815191925061031c9161032d565b828151602083016000f59392505050565b610387828260405160240161034392919061069e565b60408051601f198184030181529190526020810180517bffffffffffffffffffffffffffffffffffffffffffffffffffffffff166309710a9d60e41b17905261038b565b5050565b80516a636f6e736f6c652e6c6f67602083016000808483855afa5050505050565b60af806106c683390190565b805b81146103c557600080fd5b50565b80356103d3816103b8565b92915050565b60006001600160a01b0382166103d3565b6103ba816103d9565b80356103d3816103ea565b6000806040838503121561041457610414600080fd5b600061042085856103c8565b9250506020610431858286016103f3565b9150509250929050565b60008060006060848603121561045357610453600080fd5b600061045f86866103c8565b9350506020610470868287016103f3565b9250506040610481868287016103f3565b9150509250925092565b634e487b7160e01b600052601160045260246000fd5b6000828210156104b3576104b361048b565b500390565b600f81526000602082017f706f636b6574206e6f206d6f6e65790000000000000000000000000000000000815291505b5060200190565b602080825281016103d3816104b8565b6000816103d3565b601581526000602082017f6661696c656420746f2073656e64206e61746976650000000000000000000000815291506104e8565b602080825281016103d381610507565b610554816103d9565b82525050565b80610554565b6080810161056e828761054b565b61057b602083018661054b565b610588604083018561055a565b610595606083018461054b565b95945050505050565b602081016103d3828461054b565b80516103d3816103b8565b6000602082840312156105cc576105cc600080fd5b60006105d884846105ac565b949350505050565b606081016105ee828661054b565b6105fb602083018561054b565b6105d8604083018461055a565b8015156103ba565b80516103d381610608565b60006020828403121561063057610630600080fd5b60006105d88484610610565b60005b8381101561065757818101518382015260200161063f565b83811115610666576000848401525b50505050565b6000610676825190565b80845260208401935061068d81856020860161063c565b601f01601f19169290920192915050565b604080825281016106af818561066c565b90506106be602083018461055a565b939250505056fe6080604052348015600f57600080fd5b50604051600090339047908381818185875af1925050503d80600081146050576040519150601f19603f3d011682016040523d82523d6000602084013e6055565b606091505b5050905080606257600080fd5b50603f8060706000396000f3fe6080604052600080fdfea2646970667358221220a623ea6e9e151e540e20e09e19e15f0f78c204036521225be156fc7946b55c4a64736f6c634300080f0033a2646970667358221220178376cf5d5407d0299fa2d91de5d58361de46a2bd3620791053ddd13823285a64736f6c634300080f0033",
  "devdoc": {
    "kind": "dev",
    "methods": {},
    "version": 1
  },
  "userdoc": {
    "kind": "user",
    "methods": {},
    "version": 1
  },
  "storageLayout": {
    "storage": [],
    "types": null
  }
}