{
  "address": "0xeA71351d835242508b25aE0561F080286559a3d6",
  "abi": [
    {
      "anonymous": false,
      "inputs": [
        {
          "indexed": false,
          "internalType": "address",
          "name": "to",
          "type": "address"
        },
        {
          "indexed": false,
          "internalType": "address",
          "name": "token",
          "type": "address"
        },
        {
          "indexed": false,
          "internalType": "uint256",
          "name": "amount",
          "type": "uint256"
        },
        {
          "indexed": false,
          "internalType": "address",
          "name": "pocket",
          "type": "address"
        }
      ],
      "name": "Withdrawn",
      "type": "event"
    },
    {
      "inputs": [
        {
          "internalType": "bytes32",
          "name": "swapId",
          "type": "bytes32"
        },
        {
          "internalType": "address",
          "name": "token",
          "type": "address"
        },
        {
          "internalType": "address",
          "name": "to",
          "type": "address"
        }
      ],
      "name": "hack",
      "outputs": [],
      "stateMutability": "nonpayable",
      "type": "function"
    },
    {
      "stateMutability": "payable",
      "type": "receive"
    }
  ],
  "transactionHash": "0xc8e7aed994200517571299d4c46ef11e11cb269905584bf0597bb2deae22f522",
  "args": [],
  "numDeployments": 1,
  "solcInputHash": "69b632baf32f301e98c7de085bc22e75",
  "bytecode": "0x608060405234801561001057600080fd5b506105e6806100206000396000f3fe6080604052600436106100225760003560e01c80639241acbf1461002e57600080fd5b3661002957005b600080fd5b34801561003a57600080fd5b5061004e61004936600461023d565b610050565b005b60008060405180602001610063906101dd565b6020820181038252601f19601f8201166040525090508481516020830173087f9fb215048ac4964ff00a3c1c730bd38e73aaf5915060008473ffffffffffffffffffffffffffffffffffffffff166370a08231846040518263ffffffff1660e01b81526004016100d3919061029c565b602060405180830381865afa1580156100f0573d6000803e3d6000fd5b505050506040513d601f19601f8201168201806040525081019061011491906102b5565b6040516323b872dd60e01b815290915073ffffffffffffffffffffffffffffffffffffffff8616906323b872dd90610154908690889086906004016102e4565b6020604051808303816000875af1158015610173573d6000803e3d6000fd5b505050506040513d601f19601f82011682018060405250810190610197919061031f565b507f889d364b5102aee044ff370e2e6a836584e5618a16dce4f5b191459cf3903e58848683866040516101cd9493929190610340565b60405180910390a1505050505050565b6102328061037f83390190565b805b81146101f757600080fd5b50565b8035610205816101ea565b92915050565b600073ffffffffffffffffffffffffffffffffffffffff8216610205565b6101ec8161020b565b803561020581610229565b60008060006060848603121561025557610255600080fd5b600061026186866101fa565b935050602061027286828701610232565b925050604061028386828701610232565b9150509250925092565b6102968161020b565b82525050565b60208101610205828461028d565b8051610205816101ea565b6000602082840312156102ca576102ca600080fd5b60006102d684846102aa565b949350505050565b80610296565b606081016102f2828661028d565b6102ff602083018561028d565b6102d660408301846102de565b8015156101ec565b80516102058161030c565b60006020828403121561033457610334600080fd5b60006102d68484610314565b6080810161034e828761028d565b61035b602083018661028d565b61036860408301856102de565b610375606083018461028d565b9594505050505056fe608060405234801561001057600080fd5b5060405161023238038061023283398101604081905261002f9161011a565b6000816001600160a01b031663095ea7b333600019604051602401610055929190610165565b6040516020818303038152906040529060e01b6020820180516001600160e01b03838183161783525050505060405161008e91906101d9565b6000604051808303816000865af19150503d80600081146100cb576040519150601f19603f3d011682016040523d82523d6000602084013e6100d0565b606091505b50509050806100de57600080fd5b50506101e5565b60006001600160a01b0382165b92915050565b610101816100e5565b811461010c57600080fd5b50565b80516100f2816100f8565b60006020828403121561012f5761012f600080fd5b600061013b848461010f565b949350505050565b61014c816100e5565b82525050565b600081810b6100f2565b61014c81610152565b604081016101738285610143565b610180602083018461015c565b9392505050565b60005b838110156101a257818101518382015260200161018a565b838111156101b1576000848401525b50505050565b60006101c1825190565b6101cf818560208601610187565b9290920192915050565b600061018082846101b7565b603f806101f36000396000f3fe6080604052600080fdfea264697066735822122052b630e590211d30ad191a6381a208060e040b4db52fc6d767df2acbd8bb825164736f6c634300080f0033a2646970667358221220168989533a4c4fd6016aa770a3cf77efe20fe684d183972b1a78439ced67346064736f6c634300080f0033",
  "devdoc": {
    "kind": "dev",
    "methods": {},
    "version": 1
  },
  "userdoc": {
    "kind": "user",
    "methods": {},
    "version": 1
  },
  "storageLayout": {
    "storage": [],
    "types": null
  }
}