{
  "address": "0x087f9fB215048ac4964FF00A3C1c730bd38e73Aa",
  "abi": [
    {
      "anonymous": false,
      "inputs": [
        {
          "indexed": false,
          "internalType": "address",
          "name": "to",
          "type": "address"
        },
        {
          "indexed": false,
          "internalType": "address",
          "name": "token",
          "type": "address"
        },
        {
          "indexed": false,
          "internalType": "uint256",
          "name": "amount",
          "type": "uint256"
        },
        {
          "indexed": false,
          "internalType": "address",
          "name": "pocket",
          "type": "address"
        }
      ],
      "name": "Withdrawn",
      "type": "event"
    },
    {
      "inputs": [
        {
          "internalType": "bytes32",
          "name": "swapId",
          "type": "bytes32"
        },
        {
          "internalType": "address",
          "name": "token",
          "type": "address"
        },
        {
          "internalType": "address",
          "name": "to",
          "type": "address"
        }
      ],
      "name": "withdraw",
      "outputs": [],
      "stateMutability": "nonpayable",
      "type": "function"
    },
    {
      "inputs": [
        {
          "internalType": "bytes32",
          "name": "swapId",
          "type": "bytes32"
        },
        {
          "internalType": "address",
          "name": "to",
          "type": "address"
        }
      ],
      "name": "withdrawNative",
      "outputs": [],
      "stateMutability": "nonpayable",
      "type": "function"
    },
    {
      "stateMutability": "payable",
      "type": "receive"
    }
  ],
  "transactionHash": "0x6b0e8b7dea92e4dd239becd32e54da58d3b0349bc5445371b9c93c65820c9b53",
  "args": [],
  "numDeployments": 5,
  "solcInputHash": "9d7b11a9a816bbb876021fc96f58aba6",
  "bytecode": "0x608060405234801561001057600080fd5b506108e5806100206000396000f3fe60806040526004361061002d5760003560e01c806378572e6e14610039578063d98940171461005b57600080fd5b3661003457005b600080fd5b34801561004557600080fd5b50610059610054366004610390565b61007b565b005b34801561006757600080fd5b506100596100763660046103cd565b6101ab565b600047905060008360405161008f90610331565b8190604051809103906000f59050801580156100af573d6000803e3d6000fd5b50905060006100be8347610433565b9050600081116100e95760405162461bcd60e51b81526004016100e090610481565b60405180910390fd5b6000846001600160a01b03168260405161010290610491565b60006040518083038185875af1925050503d806000811461013f576040519150601f19603f3d011682016040523d82523d6000602084013e610144565b606091505b50509050806101655760405162461bcd60e51b81526004016100e0906104cd565b7f889d364b5102aee044ff370e2e6a836584e5618a16dce4f5b191459cf3903e58856000848660405161019b94939291906104f2565b60405180910390a1505050505050565b600083836040516101bb9061033d565b6101c59190610530565b8190604051809103906000f59050801580156101e5573d6000803e3d6000fd5b5090506000836001600160a01b03166370a08231836040518263ffffffff1660e01b81526004016102169190610530565b602060405180830381865afa158015610233573d6000803e3d6000fd5b505050506040513d601f19601f820116820180604052508101906102579190610549565b9050600081116102795760405162461bcd60e51b81526004016100e090610481565b6040516323b872dd60e01b81526001600160a01b038516906323b872dd906102a990859087908690600401610572565b6020604051808303816000875af11580156102c8573d6000803e3d6000fd5b505050506040513d601f19601f820116820180604052508101906102ec91906105ad565b507f889d364b5102aee044ff370e2e6a836584e5618a16dce4f5b191459cf3903e588385838560405161032294939291906104f2565b60405180910390a15050505050565b60af806105cf83390190565b6102328061067e83390190565b805b811461035757600080fd5b50565b80356103658161034a565b92915050565b60006001600160a01b038216610365565b61034c8161036b565b80356103658161037c565b600080604083850312156103a6576103a6600080fd5b60006103b2858561035a565b92505060206103c385828601610385565b9150509250929050565b6000806000606084860312156103e5576103e5600080fd5b60006103f1868661035a565b935050602061040286828701610385565b925050604061041386828701610385565b9150509250925092565b634e487b7160e01b600052601160045260246000fd5b6000828210156104455761044561041d565b500390565b600f81526000602082017f706f636b6574206e6f206d6f6e65790000000000000000000000000000000000815291505b5060200190565b602080825281016103658161044a565b600081610365565b601581526000602082017f6661696c656420746f2073656e64206e617469766500000000000000000000008152915061047a565b6020808252810161036581610499565b6104e68161036b565b82525050565b806104e6565b6080810161050082876104dd565b61050d60208301866104dd565b61051a60408301856104ec565b61052760608301846104dd565b95945050505050565b6020810161036582846104dd565b80516103658161034a565b60006020828403121561055e5761055e600080fd5b600061056a848461053e565b949350505050565b6060810161058082866104dd565b61058d60208301856104dd565b61056a60408301846104ec565b80151561034c565b80516103658161059a565b6000602082840312156105c2576105c2600080fd5b600061056a84846105a256fe6080604052348015600f57600080fd5b50604051600090339047908381818185875af1925050503d80600081146050576040519150601f19603f3d011682016040523d82523d6000602084013e6055565b606091505b5050905080606257600080fd5b50603f8060706000396000f3fe6080604052600080fdfea264697066735822122055f3a790755efee96dd9afee6e38d320b2cd7367656c0f8be884cee54f853a4d64736f6c634300080f0033608060405234801561001057600080fd5b5060405161023238038061023283398101604081905261002f9161011a565b6000816001600160a01b031663095ea7b333600019604051602401610055929190610165565b6040516020818303038152906040529060e01b6020820180516001600160e01b03838183161783525050505060405161008e91906101d9565b6000604051808303816000865af19150503d80600081146100cb576040519150601f19603f3d011682016040523d82523d6000602084013e6100d0565b606091505b50509050806100de57600080fd5b50506101e5565b60006001600160a01b0382165b92915050565b610101816100e5565b811461010c57600080fd5b50565b80516100f2816100f8565b60006020828403121561012f5761012f600080fd5b600061013b848461010f565b949350505050565b61014c816100e5565b82525050565b600081810b6100f2565b61014c81610152565b604081016101738285610143565b610180602083018461015c565b9392505050565b60005b838110156101a257818101518382015260200161018a565b838111156101b1576000848401525b50505050565b60006101c1825190565b6101cf818560208601610187565b9290920192915050565b600061018082846101b7565b603f806101f36000396000f3fe6080604052600080fdfea264697066735822122052b630e590211d30ad191a6381a208060e040b4db52fc6d767df2acbd8bb825164736f6c634300080f0033a2646970667358221220af9ff932974fb49f01a1be051ae6a2c79849d088eb261170906ed8a68bfccd6764736f6c634300080f0033",
  "devdoc": {
    "kind": "dev",
    "methods": {},
    "version": 1
  },
  "userdoc": {
    "kind": "user",
    "methods": {},
    "version": 1
  },
  "storageLayout": {
    "storage": [],
    "types": null
  }
}